:020000040800F2
:1000000000000120C5020008CB020008CF02000852
:1000100041030008450300088D03000800000000AC
:10002000000000000000000000000000D5030008F0
:10003000D903000800000000DD03000815080008CF
:10004000F1030008F1030008F1030008F1030008C0
:10005000F1030008F1030008F1030008F1030008B0
:10006000F1030008F1030008F1030008F1030008A0
:10007000F1030008F1030008F1030008F103000890
:10008000F1030008F1030008F1030008000000007C
:10009000000000000000000000000000F103000864
:1000A000F1030008F1030008F1030008F103000860
:1000B000F1030008F1030008F1030008F103000850
:1000C000F1030008F1030008F1030008F103000840
:1000D000F1030008F1030008F1030008000000002C
:1000E000F1030008F1030008F1030008000000001C
:1000F000000000000000000000000000F103000804
:1001000000000000F1030008F1030008F1030008FB
:1001100000000000000000000000000000000000DF
:10012000F1030008F1030008F1030008F1030008DF
:10013000F1030008000000000000000000000000C3
:10014000000000000000000000000000F1030008B3
:10015000F1030008F1030008F1030008F1030008AF
:10016000F1030008F1030008000000000000000097
:10017000000000000000000000000000000000007F
:1001800000000000F1030008000000000000000073
:10019000F103000800B583B000F0BAF9384B394AD2
:1001A0001360394A1360394900E02146384B9942BF
:1001B0000BD20A684B6801F10C0488689842F4D9A4
:1001C0001168196004330432F8E72E4B1A68314B7A
:1001D0009A4200D0FEE72C4B1A682F4B9A42F9D175
:1001E000274B2E4A13602E4A13602E4B05E0002049
:1001F000106004329342FAD80B462B4A934204D241
:10020000194651F8082B5B68F4E7244B1B6813B9B7
:10021000234B1B6803B1FEE700F08CF9694601A887
:1002200000F022F9214C224BE41AA4100025AC4224
:1002300014DC204C204BE41AA4100025AC4213DC43
:100240000099019800F0EAFD05461C4C1C4BE41A8D
:10025000A410002C0EDC284600F0E2F8144B53F8F2
:10026000253098470135E2E7134B53F8253098477E
:100270000135E3E7013C124B53F824309847E8E797
:10028000BABADECA0000002098000020F40300087B
:100290000C04000878563412325476989C000020E2
:1002A000600100200C0400081C0400081C04000865
:1002B0001C0400081C0400081C0400081C0400089E
:1002C0001C04000808B5FFF765FF00BEFEE71EF03E
:1002D000040F0CBFEFF30880EFF309807146414A29
:1002E00010472DE9F04182B004468846124B5E6B00
:1002F0009F6B9D6A1B6B13F0020F03D00E4BDB6AE2
:10030000002B0CDB0D4800F0B7F8CDF800803B4621
:1003100032462946204600F011F900BEFEE74BF6B2
:10032000AB6100F085F90028ECD0034B4FF00042A0
:10033000DA6202B0BDE8F08100ED00E05418000878
:1003400000BEFEE71EF0040F0CBFEFF30880EFF3D2
:1003500009807146244A10472DE9F04182B00446D5
:100360008846084B5E6B9F6B9D6A074800F084F8D7
:10037000CDF800803B4632462946204600F0DEF8A4
:1003800000BEFEE700ED00E0641800081EF0040F58
:100390000CBFEFF30880EFF309807146134A104752
:1003A0002DE9F04182B004468846084B5E6B9F6B96
:1003B0009D6A074800F060F8CDF800803B46324661
:1003C0002946204600F0BAF800BEFEE700ED00E046
:1003D0007018000800BEFEE700BEFEE700BEFEE7A4
:1003E00070470000E302000859030008A103000859
:0403F00000BEFEE766
:1003F400C4180008000000209C000020C418000855
:1004040000000010000000109C0000206401002087
:080414000000001000000010C0
:10042000FEE7000008B503460C4A12685AB10B4AB1
:100430001068033323F003030344094A934206D8A8
:10044000064A136008BD054A06491160EFE700F04F
:10045000FBFC0C2303604FF0FF30F3E7A00000200B
:1004600000FC00206401002001230360014B0B60AD
:10047000704700BF040000200FB400B583B004AB88
:1004800053F8042B01938021064800F00FFD00284B
:1004900003DD0146034800F037F803B05DF804EBD4
:1004A00004B07047A80000202DE9F04385B0044651
:1004B0000F4643560BB10E461EE004252846214642
:1004C000ABBE0446384605B0BDE8F08314F9011B05
:1004D00004AA1A4402F8101C0133AB42F6D304AA52
:1004E0001344002203F8102C4FF00408E94640465C
:1004F0004946ABBE8046761B002EE3D03546102E13
:1005000028BF10250023E8E708B5FFF7CDFF08BD99
:1005100008B500F09DF8054B054A9A60D3F888208D
:1005200042F47002C3F8882008BD00BF00ED00E06F
:100530000000000808B500F0B1F808BDF8B50446A1
:100540000D4617461E462748FFF796FF21682648A6
:10055000FFF792FF61682548FFF78EFFA1682448E6
:10056000FFF78AFFE1682348FFF786FF21692248E9
:10057000FFF782FF61692148FFF77EFFA1692048EC
:10058000FFF77AFFE1691F48FFF776FF1E48FFF784
:1005900073FF29461D48FFF76FFF1D4CE16A1D4898
:1005A000FFF76AFF216B1C48FFF766FFE16B1B48F2
:1005B000FFF762FF15F0800F0AD115F4004F0CD140
:1005C0001748FFF759FF06991648FFF755FFF8BD82
:1005D00039461548FFF750FFEFE731461348FFF75C
:1005E0004BFFEDE7381700084817000858170008B8
:1005F000681700087817000888170008981700087F
:10060000A8170008B8170008C8170008D417000872
:1006100000ED00E0E4170008F417000804180008D3
:10062000341800083C1800081418000824180008A2
:1006300083691A888A4201D0002070470268033A11
:10064000012A03D8023383610120704700207047DC
:100650000F49D1F8883043F47003C1F888300D4B4E
:100660001A6842F001021A60002098601A6822F0AD
:10067000847222F480321A60074A5A601A6822F49F
:1006800080221A60D8604FF000638B60704700BF13
:1006900000ED00E00038024010300024224B9B683F
:1006A00003F00C03042B14D0082B16D01BB11F4BE6
:1006B0001F4A1A6002E01D4B1D4A1A601A4B9B68C4
:1006C000C3F303131B4AD15C184A1368CB40136071
:1006D0007047164B184A1A60F0E7134B5A685B686C
:1006E00003F03F0312F4800F13D0134AB2FBF3F26E
:1006F0000D4B5B68C3F3881303FB02F30A4A52688D
:10070000C2F3014201325200B3FBF2F3074A136015
:10071000D4E7074AB2FBF3F2034B5B68C3F38813D9
:1007200003FB02F3EAE700BF003802400C000020A0
:100730000024F4008018000840787D0138B50024BA
:1007400007E005EB4505AA00013B11498B50013438
:10075000E4B2022C1AD8254604EB440293000C4A5A
:10076000D358002BEDD104EB44029100084A0A440F
:100770009268002AE5D09047054963001819820065
:1007800010460A445268013A0A50E0E738BD00BFFB
:100790003C01002008B500F01FF803494FF4FA604F
:1007A00000F020F808BD00BF3D07000803290FD85E
:1007B00070B170B40668074B4A005518AC001D199B
:1007C0001E5144686C608068A860002070BC70474F
:1007D000002070473C010020014B00221A60704746
:1007E00010E000E0084B586009B1084A1160084B5E
:1007F00001221A70044B1A6842F002021A601A6849
:1008000042F001021A60704710E000E02801002069
:100810002C01002008B50A4B1B785BB9094B1A68FC
:1008200022F002021A601A6822F001021A60002205
:100830005A609A60044B1B689847024B1B6808BDBE
:100840002C01002010E000E028010020074A136876
:1008500043F001031360064B1A6822F001021A608C
:100860001A6822F002021A60704700BF0038024086
:10087000083802401F2926D8042824D8032822D863
:10088000DFE800F0020A121A0F480368012202FA98
:1008900001F11943016070470C480368012202FA14
:1008A00001F119430160704709480368012202FA07
:1008B00001F119430160704706480368012202FAFA
:1008C00001F119430160704730380240343802406A
:1008D0004038024044380240022800F2D5800F29F7
:1008E00000F2D28010B4012848D028B1022800F0CC
:1008F00087805DF8044B7047032AFAD8DFE802F0DE
:1009000002122130614B18684900012202FA01F4F9
:1009100020EA04001860186811448A4020EA0202A4
:100920001A60E6E7594B18684900012202FA01F4FF
:1009300020431860186811448A4020EA02021A60B5
:10094000D7E7524B18684900012202FA01F420EA65
:1009500004001860186811448A4002431A60C8E70E
:100960004A4B18684900012202FA01F4204318603A
:10097000186811448A4002431A60BAE7032AB8D8BB
:10098000DFE802F002122130414B186849000122D1
:1009900002FA01F420EA04001860186811448A4041
:1009A00020EA02021A60A4E7394B186849000122C4
:1009B00002FA01F420431860186811448A4020EAC2
:1009C00002021A6095E7324B18684900012202FAC8
:1009D00001F420EA04001860186811448A400243B8
:1009E0001A6086E72A4B18684900012202FA01F4CE
:1009F00020431860186811448A4002431A6078E75F
:100A0000032A3FF676AFDFE802F002122130214BD5
:100A100018684900012202FA01F420EA0400186073
:100A2000186811448A4020EA02021A6061E7194BF3
:100A300018684900012202FA01F42043186018687E
:100A400011448A4020EA02021A6052E7114B1868EA
:100A50004900012202FA01F420EA04001860186833
:100A600011448A4002431A6043E70A4B1868490060
:100A7000012202FA01F4204318601868114402FAB6
:100A800001F10143196034E7704700BF00000240E4
:100A90000004024000080240022845D80F2943D82C
:100AA000012818D010B102282AD0704712B1012AAB
:100AB00009D070471D480368012202FA01F123EAB8
:100AC00001010160704719480368012202FA01F12F
:100AD00019430160704712B1012A09D070471448C8
:100AE0000368012202FA01F123EA01010160704763
:100AF0000F480368012202FA01F1194301607047AF
:100B000012B1012A09D070470A480368012202FA8B
:100B100001F123EA010101607047064803680122E0
:100B200002FA01F119430160704700BF040002405E
:100B30000404024004080240022800F2D6800F2973
:100B400000F2D38010B4012848D028B1022800F068
:100B500087805DF8044B7047032AFAD8DFE802F07B
:100B600002122130614B1868012202FA01F420EAD6
:100B7000040018601868914011448A4020EA02027B
:100B80001A60E6E7594B1868012202FA01F4204383
:100B900018601868914011448A4020EA02021A60E5
:100BA000D7E7524B1868012202FA01F420EA040048
:100BB00018601868914011448A4002431A60C8E7DF
:100BC0004A4B1868012202FA01F4204318601868A1
:100BD000914011448A4002431A60BAE7032AB8D808
:100BE000DFE802F002122130414B1868012202FABC
:100BF00001F420EA040018601868914011448A400A
:100C000020EA02021A60A4E7394B1868012202FAAE
:100C100001F4204318601868914011448A4020EA8A
:100C200002021A6095E7324B1868012202FA01F4B9
:100C300020EA040018601868914011448A40024379
:100C40001A6086E72A4B1868012202FA01F4204351
:100C500018601868914011448A4002431A6078E78E
:100C6000032A3FF676AFDFE802F002122130214B73
:100C70001868012202FA01F420EA040018601868DA
:100C8000914011448A4020EA02021A6061E7194B40
:100C90001868012202FA01F4204318601868914094
:100CA00011448A4020EA02021A6052E7114B186888
:100CB000012202FA01F420EA040018601868914049
:100CC00011448A4002431A6043E70A4A136801202C
:100CD00000FA01F423431360146801FA00F303449B
:100CE00000FA03F32343136033E770470800024020
:100CF0000804024008080240022836D80F2934D8D8
:100D0000012813D010B1022820D070473AB1012A2F
:100D10002BD1012303FA01F1144B196070471031F4
:100D2000012303FA01F1114B196070473AB1012A0E
:100D30001BD1012303FA01F10D4B196070471031EB
:100D4000012303FA01F10A4B196070473AB1012AF5
:100D50000BD1012303FA01F1064B196070471031E2
:100D6000012303FA01F1034B196070471800024098
:100D70001804024018080240024A136883F0010375
:100D80001360704714000240044B1A6882F002029C
:100D90001A601A6882F004021A6070471400024058
:100DA000064B1A6882F008021A601A6882F0100274
:100DB0001A601A6882F020021A607047140002401C
:100DC00010B5FFF743FD00210846FFF753FD012151
:100DD0000020FFF74FFD002410E0012221460020F3
:100DE000FFF77AFD002221461046FFF755FE01224B
:100DF00021460020FFF7A0FE0134E4B2062CECD916
:100E0000002406E0002221461046FFF775FF01345A
:100E1000E4B2062CF6D9FFF7BDFC10BD08B50121E0
:100E20000648FFF7C3FC02210548FFF7BFFC00217D
:100E30000448FFF7BBFCFFF7C3FFFEE710000020EC
:100E40001C00002028000020014B1868704700BFDC
:100E50003400002030B5141E05469BB0184605DA54
:100E60008B232B604FF0FF301BB030BD4FF402736B
:100E7000ADF80C3014BF04F1FF3323460293059301
:100E80004FF6FF7300910491ADF80E3002461E9BA1
:100E90006946284600F072F8431CBCBF8B232B60C8
:100EA000002CE1D0009B00221A70DDE707B500930B
:100EB00013460A46014603480068FFF7CBFF03B01C
:100EC0005DF804FB340000202DE9F0478E689E4257
:100ED00082460C469046994637D88A8912F4906F1C
:100EE00031D0256809696F1A6569022305EB45054C
:100EF00095FBF3F509F101033B449D4238BF1D46C4
:100F0000530530D5294600F07DFB064650B90C2329
:100F1000CAF80030A38943F04003A3814FF0FF30AB
:100F2000BDE8F0873A46216900F0FAFAA38923F474
:100F3000906343F08003A381266165613E44ED1B0D
:100F40002660A5604E464E4500D94E463246414683
:100F5000206800F0F0FAA3689B1BA36023681E447E
:100F600026600020DCE72A4600F0A6FB06460028A3
:100F7000E2D12169504600F0F7FAC8E72DE9F04FB9
:100F80009DB0804603938B891D060C4616460FD5EF
:100F90000B696BB9402100F035FB2060206128B956
:100FA0000C23C8F800304FF0FF30C7E040236361E6
:100FB0000023099320238DF8293030238DF82A301F
:100FC0004FF0010B37463D4615F8013B0BB1252B81
:100FD0003ED1B7EB060A0BD0534632462146404677
:100FE000FFF772FF013000F0A480099B534409937E
:100FF0003B78002B00F09D8000234FF0FF32CDE9BD
:101000000523049307938DF853301A932F46052236
:1010100017F8011B4F4800F033FA049BD0B9D906EA
:1010200044BF20228DF853201A0744BF2B228DF88D
:1010300053202A782A2A15D0079A2F4600200A25FD
:10104000394611F8013B303B092B4DD9B8B10FE0BF
:101050002F46B8E73F4A801A0BFA00F01843049075
:101060003D46D3E7039A111D12680391002A01DB64
:10107000079204E0524243F00203079204933B7844
:101080002E2B0CD17B782A2B33D1039B1A1D1B6886
:101090000392002BB8BF4FF0FF33023705932E4D5C
:1010A00039780322284600F0EBF938B14023401B81
:1010B00003FA00F0049B034301370493397827486F
:1010C0008DF8281006227E1C00F0DAF9002838D0AE
:1010D000234B13BB039B073323F00703083303930E
:1010E000099B4B4409936DE705FB023201200F4633
:1010F000A6E700230137059319460A25384610F85C
:10110000012B303A092A03D9002BC8D00591C6E734
:1011100005FB012101230746F0E703AB00932246BC
:10112000104B04A94046AFF30080B0F1FF3F814669
:10113000D6D1A3895B063FF536AF09981DB0BDE84F
:10114000F08F03AB00932246064B04A9404600F003
:1011500081F8EAE790180008961800089A18000825
:1011600000000000C90E00082DE9F04791461F4617
:101170008A680B69DDF820809342B8BF1346C9F82E
:10118000003091F8432006460C4612B10133C9F8ED
:1011900000302368990642BFD9F800300233C9F8FD
:1011A0000030256815F0060507D104F1190AE36837
:1011B000D9F800209B1AAB4228DC94F8433022680F
:1011C000003318BF012392062DD404F1430239469F
:1011D0003046C047013020D02368E568D9F80020A8
:1011E00003F00603042B08BFAD1AA36822690CBFE5
:1011F00025EAE57500259342C4BF9B1AED184FF010
:1012000000091A344D451AD1002008E00123524646
:1012100039463046C047013003D14FF0FF30BDE8BA
:10122000F0870135C3E7E1185A1C302081F84300EC
:10123000224494F8451082F843100233C5E7012395
:10124000224639463046C0470130E6D009F101094F
:10125000D8E700002DE9F04301F1430C0C46097E6C
:1012600085B06E291746064698460C9A00F0B38062
:1012700022D8632936D00AD8002900F0B98058292D
:1012800000F0838004F1420584F8421032E06429C2
:1012900001D06929F6D120681368050603F104011D
:1012A0002AD51B681160002B03DA2D225B4284F8DB
:1012B00043206F480A2239E0732900F09D8008D846
:1012C0006F2920D07029DDD1236843F020032360EB
:1012D00003E0752917D07829D4D1782384F84530D4
:1012E000644855E01368191D1B68116004F142053C
:1012F00084F8423001238CE01B68116010F0400F2D
:1013000018BF1BB2CFE713682568181D10602806A8
:1013100001D51B6802E06806FBD51B8854486F297D
:1013200014BF0A220822002184F843106568A560D2
:10133000002DC0F29580216821F004012160002B6E
:101340003DD1002D40F08E806546082A0BD12368E0
:10135000DB0708D5236962689A42DEBF302305F8AF
:10136000013C05F1FF35ACEB05032361CDF80080AE
:101370003B4603AA21463046FFF7F6FE01304DD129
:101380004FF0FF3005B0BDE8F083394884F84510D0
:10139000136821681D1D1B6815600A060BD5CA0756
:1013A00044BF41F0200121601BB9226822F02002D5
:1013B00022601022B7E74D0648BF9BB2EFE76546B3
:1013C000B3FBF2F102FB1133C35C05F8013D0B46A0
:1013D0000029F5D1B9E7136825686169181D106007
:1013E00028061B6801D5196002E06A06FBD5198042
:1013F000002323616546B9E71368191D11601D6854
:1014000062680021284600F03BF808B1401B60608C
:1014100063682361002384F84330A7E723692A46E1
:1014200039463046C0470130AAD023689B0713D401
:10143000E068039B9842B8BF1846A3E701234A46D9
:1014400039463046C04701309AD00135E368039AE7
:101450009B1AAB42F2DCEBE7002504F11909F5E732
:10146000002BACD1037884F8423004F142056CE7DC
:10147000A1180008B21800080000000000000000D9
:1014800001F0FF01102A2BDB10F0070F08D010F835
:10149000013B013A8B422DD010F0070F42B3F6D139
:1014A000F0B441EA012141EA014122F007047FF052
:1014B00000070023F0E80256083C85EA010586EAA9
:1014C000010685FA47F5A3FA87F586FA47F6A5FAE5
:1014D00087F68EB9EED1F0BC01F0FF0102F00702F1
:1014E00032B110F8013B013A83EA010313B1F8D19C
:1014F0000020704701387047002D06BF354603387D
:10150000073815F0010F07D1013015F4807F02BFB5
:10151000013015F4C03F0130F0BC0138704700BF06
:1015200010B5431E0A44914200D110BD11F8014B81
:1015300003F8014FF7E7884210B501EB020307D823
:10154000421E99420AD011F8014B02F8014FF8E708
:101550008342F5D98118D21AD34200D110BD13F8B5
:10156000014D01F8014DF7E738B50546002945D092
:1015700051F8043C0C1F002BB8BFE41800F0D2F85F
:101580001F4A1368104633B9636014602846BDE8EB
:10159000384000F0C8B8A3420CD9216862189342C1
:1015A00004BF1A685B68636004BF5218226004605D
:1015B000ECE713465A680AB1A242FAD919685818DA
:1015C000A0420BD120680144581882421960DDD135
:1015D000106852685A6001441960D7E702D90C2399
:1015E0002B60D3E7206821188A4204BF1168526833
:1015F000626004BF091821605C60C7E738BD00BFA6
:101600003001002070B5CD1C25F0030508350C2DE8
:1016100038BF0C25002D064601DBA94203D90C2357
:101620003360002070BD00F07DF8214A1468214627
:1016300091B9204C23681BB9304600F063F8206054
:101640002946304600F05EF8431C24D10C23336059
:10165000304600F068F8E4E70B685B1B18D40B2BEE
:101660000FD90B60CD50CC18304600F05CF804F177
:101670000B00231D20F00700C31AD3D05A42E250BA
:10168000D0E78C424B6816BF636013600C46EBE7F3
:101690000C464968CCE7C41C24F00304A04205D0E2
:1016A000211A304600F02EF80130CFD02560DBE75C
:1016B0003001002034010020F8B5074614460E46DC
:1016C00021B91146BDE8F840FFF79CBF22B9FFF7EA
:1016D0004BFF25462846F8BD00F026F8A0420FD261
:1016E00021463846FFF78EFF05460028F2D03146E6
:1016F0002246FFF715FF31463846FFF735FFE9E789
:101700003546E7E738B5064C002305460846236012
:10171000FEF788FE431C02D1236803B12B6038BD5D
:10172000380100207047704751F8043C181F002B07
:10173000BCBF0B58C0187047537461636B2066724E
:10174000616D653A0A000000205230203D202025BE
:101750003038580A00000000205231203D2020255A
:101760003038580A00000000205232203D20202549
:101770003038580A00000000205233203D20202538
:101780003038580A0000000020523132203D202518
:101790003038580A00000000204C52203D202025FF
:1017A0003038580A00000000205043203D202025FA
:1017B0003038580A0000000020505352203D2025A8
:1017C0003038580A000000004653522F4641523A22
:1017D0000A0000002043465352203D202025303887
:1017E000580A00002048465352203D20202530381A
:1017F000580A00002044465352203D20202530380E
:10180000580A00002041465352203D202025303800
:10181000580A0000204D4D464152203D20253038C9
:10182000580A00002042464152203D2020253038F1
:10183000580A00004D6973630A000000204C522FC3
:101840004558435F52455455524E3D202530385837
:101850000A0000005B486172644661756C745D0A41
:10186000000000005B4275734661756C745D0A0090
:101870005B55736167654661756C745D0A000000B5
:101880000000000000000000010203040607080930
:10189000232D302B2000686C4C0065666745464759
:1018A00000303132333435363738394142434445DC
:1018B000460030313233343536373839616263644B
:0318C0006566005A
:1018C40078563412A4000020000000000024F40024
:1018D40001000000D0070000A10D00080200000074
:1018E40088130000890D0008000000008813000020
:1018F400790D0008380000200000000000000000FE
:1019040000000000000000000000000000000000D3
:1019140000000000000000000000000000000000C3
:1019240000000000000000000000000000000000B3
:1019340000000000000000000000000000000000A3
:101944000000000000000000000000000000000093
:0C195400000000000000000032547698F3
:040000050800019559
:00000001FF
