:020000040800F2
:1000000000000120C5020008CB020008CF02000852
:1000100041030008450300088D03000800000000AC
:10002000000000000000000000000000D5030008F0
:10003000D903000800000000DD0300088507000860
:10004000F1030008F1030008F1030008F1030008C0
:10005000F1030008F1030008F1030008F1030008B0
:10006000F1030008F1030008F1030008F1030008A0
:10007000F1030008F1030008F1030008F103000890
:10008000F1030008F1030008F1030008000000007C
:10009000000000000000000000000000F103000864
:1000A000F1030008F1030008F1030008F103000860
:1000B000F1030008F1030008F1030008F103000850
:1000C000F1030008F1030008F1030008F103000840
:1000D000F1030008F1030008F1030008000000002C
:1000E000F1030008F1030008F1030008000000001C
:1000F000000000000000000000000000F103000804
:1001000000000000F1030008F1030008F1030008FB
:1001100000000000000000000000000000000000DF
:10012000F1030008F1030008F1030008F1030008DF
:10013000F1030008000000000000000000000000C3
:10014000000000000000000000000000F1030008B3
:10015000F1030008F1030008F1030008F1030008AF
:10016000F1030008F1030008000000000000000097
:10017000000000000000000000000000000000007F
:1001800000000000F1030008000000000000000073
:10019000F103000800B583B000F0BAF9384B394AD2
:1001A0001360394A1360394900E02146384B9942BF
:1001B0000BD20A684B6801F10C0488689842F4D9A4
:1001C0001168196004330432F8E72E4B1A68314B7A
:1001D0009A4200D0FEE72C4B1A682F4B9A42F9D175
:1001E000274B2E4A13602E4A13602E4B05E0002049
:1001F000106004329342FAD80B462B4A934204D241
:10020000194651F8082B5B68F4E7244B1B6813B9B7
:10021000234B1B6803B1FEE700F08CF9694601A887
:1002200000F022F9214C224BE41AA4100025AC4224
:1002300014DC204C204BE41AA4100025AC4213DC43
:100240000099019800F052FD05461C4C1C4BE41A25
:10025000A410002C0EDC284600F0E2F8144B53F8F2
:10026000253098470135E2E7134B53F8253098477E
:100270000135E3E7013C124B53F824309847E8E797
:10028000BABADECA0000002034A80020F403000837
:100290000C040008785634123254769838A800209E
:1002A000DCA800200C0400081C0400081C04000842
:1002B0001C0400081C0400081C0400081C0400089E
:1002C0001C04000808B5FFF765FF00BEFEE71EF03E
:1002D000040F0CBFEFF30880EFF309807146414A29
:1002E00010472DE9F04182B004468846124B5E6B00
:1002F0009F6B9D6A1B6B13F0020F03D00E4BDB6AE2
:10030000002B0CDB0D4800F0B7F8CDF800803B4621
:1003100032462946204600F011F900BEFEE74BF6B2
:10032000AB6100F085F90028ECD0034B4FF00042A0
:10033000DA6202B0BDE8F08100ED00E004170008C9
:1003400000BEFEE71EF0040F0CBFEFF30880EFF3D2
:1003500009807146244A10472DE9F04182B00446D5
:100360008846084B5E6B9F6B9D6A074800F084F8D7
:10037000CDF800803B4632462946204600F0DEF8A4
:1003800000BEFEE700ED00E0141700081EF0040FA9
:100390000CBFEFF30880EFF309807146134A104752
:1003A0002DE9F04182B004468846084B5E6B9F6B96
:1003B0009D6A074800F060F8CDF800803B46324661
:1003C0002946204600F0BAF800BEFEE700ED00E046
:1003D0002017000800BEFEE700BEFEE700BEFEE7F5
:1003E00070470000E302000859030008A103000859
:0403F00000BEFEE766
:1003F400741700080000002038A8002074170008B3
:10040400000000100000001038A80020E0A8002020
:080414000000001000000010C0
:10042000FEE7000008B503460C4A12685AB10B4AB1
:100430001068033323F003030344094A934206D8A8
:10044000064A136008BD054A06491160EFE700F04F
:1004500051FC0C2303604FF0FF30F3E73CA8002071
:1004600000FC0020E0A8002001230360014B0B608A
:10047000704700BF040000200FB400B583B004AB88
:1004800053F8042B01938021064800F065FC0028F6
:1004900003DD0146034800F037F803B05DF804EBD4
:1004A00004B0704744A800202DE9F04385B004460D
:1004B0000F4643560BB10E461EE004252846214642
:1004C000ABBE0446384605B0BDE8F08314F9011B05
:1004D00004AA1A4402F8101C0133AB42F6D304AA52
:1004E0001344002203F8102C4FF00408E94640465C
:1004F0004946ABBE8046761B002EE3D03546102E13
:1005000028BF10250023E8E708B5FFF7CDFF08BD99
:1005100008B500F09DF8054B054A9A60D3F888208D
:1005200042F47002C3F8882008BD00BF00ED00E06F
:100530000000000808B500F0B1F808BDF8B50446A1
:100540000D4617461E462748FFF796FF21682648A6
:10055000FFF792FF61682548FFF78EFFA1682448E6
:10056000FFF78AFFE1682348FFF786FF21692248E9
:10057000FFF782FF61692148FFF77EFFA1692048EC
:10058000FFF77AFFE1691F48FFF776FF1E48FFF784
:1005900073FF29461D48FFF76FFF1D4CE16A1D4898
:1005A000FFF76AFF216B1C48FFF766FFE16B1B48F2
:1005B000FFF762FF15F0800F0AD115F4004F0CD140
:1005C0001748FFF759FF06991648FFF755FFF8BD82
:1005D00039461548FFF750FFEFE731461348FFF75C
:1005E0004BFFEDE7E8150008F815000808160008AD
:1005F00018160008281600083816000848160008C3
:1006000058160008681600087816000884160008B6
:1006100000ED00E094160008A4160008B4160008C7
:10062000E4160008EC160008C4160008D4160008EA
:1006300083691A888A4201D0002070470268033A11
:10064000012A03D8023383610120704700207047DC
:100650000F49D1F8883043F47003C1F888300D4B4E
:100660001A6842F001021A60002098601A6822F0AD
:10067000847222F480321A60074A5A601A6822F49F
:1006800080221A60D8604FF000638B60704700BF13
:1006900000ED00E00038024010300024224B9B683F
:1006A00003F00C03042B14D0082B16D01BB11F4BE6
:1006B0001F4A1A6002E01D4B1D4A1A601A4B9B68C4
:1006C000C3F303131B4AD15C184A1368CB40136071
:1006D0007047164B184A1A60F0E7134B5A685B686C
:1006E00003F03F0312F4800F13D0134AB2FBF3F26E
:1006F0000D4B5B68C3F3881303FB02F30A4A52688D
:10070000C2F3014201325200B3FBF2F3074A136015
:10071000D4E7074AB2FBF3F2034B5B68C3F38813D9
:1007200003FB02F3EAE700BF003802400C000020A0
:100730000024F4003017000840787D01014B0022AE
:100740001A60704710E000E00B4B1A6822F00102BB
:100750001A6000229A60586009B1084A1160084B7B
:1007600001221A70044B1A6842F002021A601A68D9
:1007700042F001021A60704710E000E0C4A80020B7
:10078000C8A8002008B50A4B1B785BB9094B1A684A
:1007900022F002021A601A6822F001021A60002296
:1007A0005A609A60044B1B689847024B1B6808BD4F
:1007B000C8A8002010E000E0C4A80020074A136881
:1007C00043F001031360064B1A6822F001021A601D
:1007D0001A6822F002021A60704700BF0038024017
:1007E000083802401F2926D8042824D8032822D8F4
:1007F000DFE800F0020A121A0F480368012202FA29
:1008000001F11943016070470C480368012202FAA4
:1008100001F119430160704709480368012202FA97
:1008200001F119430160704706480368012202FA8A
:1008300001F11943016070473038024034380240FA
:100840004038024044380240022800F2D5800F2987
:1008500000F2D28010B4012848D028B1022800F05C
:1008600087805DF8044B7047032AFAD8DFE802F06E
:1008700002122130614B18684900012202FA01F48A
:1008800020EA04001860186811448A4020EA020235
:100890001A60E6E7594B18684900012202FA01F490
:1008A00020431860186811448A4020EA02021A6046
:1008B000D7E7524B18684900012202FA01F420EAF6
:1008C00004001860186811448A4002431A60C8E79F
:1008D0004A4B18684900012202FA01F420431860CB
:1008E000186811448A4002431A60BAE7032AB8D84C
:1008F000DFE802F002122130414B18684900012262
:1009000002FA01F420EA04001860186811448A40D1
:1009100020EA02021A60A4E7394B18684900012254
:1009200002FA01F420431860186811448A4020EA52
:1009300002021A6095E7324B18684900012202FA58
:1009400001F420EA04001860186811448A40024348
:100950001A6086E72A4B18684900012202FA01F45E
:1009600020431860186811448A4002431A6078E7EF
:10097000032A3FF676AFDFE802F002122130214B66
:1009800018684900012202FA01F420EA0400186004
:10099000186811448A4020EA02021A6061E7194B84
:1009A00018684900012202FA01F42043186018680F
:1009B00011448A4020EA02021A6052E7114B18687B
:1009C0004900012202FA01F420EA040018601868C4
:1009D00011448A4002431A6043E70A4B18684900F1
:1009E000012202FA01F4204318601868114402FA47
:1009F00001F10143196034E7704700BF0000024075
:100A00000004024000080240022845D80F2943D8BC
:100A1000012818D010B102282AD0704712B1012A3B
:100A200009D070471D480368012202FA01F123EA48
:100A300001010160704719480368012202FA01F1BF
:100A400019430160704712B1012A09D07047144858
:100A50000368012202FA01F123EA010101607047F3
:100A60000F480368012202FA01F11943016070473F
:100A700012B1012A09D070470A480368012202FA1C
:100A800001F123EA01010160704706480368012271
:100A900002FA01F119430160704700BF04000240EF
:100AA0000404024004080240022800F2D6800F2904
:100AB00000F2D38010B4012848D028B1022800F0F9
:100AC00087805DF8044B7047032AFAD8DFE802F00C
:100AD00002122130614B1868012202FA01F420EA67
:100AE000040018601868914011448A4020EA02020C
:100AF0001A60E6E7594B1868012202FA01F4204314
:100B000018601868914011448A4020EA02021A6075
:100B1000D7E7524B1868012202FA01F420EA0400D8
:100B200018601868914011448A4002431A60C8E76F
:100B30004A4B1868012202FA01F420431860186831
:100B4000914011448A4002431A60BAE7032AB8D898
:100B5000DFE802F002122130414B1868012202FA4C
:100B600001F420EA040018601868914011448A409A
:100B700020EA02021A60A4E7394B1868012202FA3F
:100B800001F4204318601868914011448A4020EA1B
:100B900002021A6095E7324B1868012202FA01F44A
:100BA00020EA040018601868914011448A4002430A
:100BB0001A6086E72A4B1868012202FA01F42043E2
:100BC00018601868914011448A4002431A6078E71F
:100BD000032A3FF676AFDFE802F002122130214B04
:100BE0001868012202FA01F420EA0400186018686B
:100BF000914011448A4020EA02021A6061E7194BD1
:100C00001868012202FA01F4204318601868914024
:100C100011448A4020EA02021A6052E7114B186818
:100C2000012202FA01F420EA0400186018689140D9
:100C300011448A4002431A6043E70A4A13680120BC
:100C400000FA01F423431360146801FA00F303442B
:100C500000FA03F32343136033E7704708000240B0
:100C60000804024008080240084A13680849C95CA1
:100C7000084B19601368013313604AF6D672934229
:100C800000D07047014B00221A60FAE7CCA8002080
:100C9000100000201400024010B5FFF78FFD002166
:100CA0000846FFF79FFD01210020FFF79BFD002470
:100CB00010E0012221460020FFF7C6FD0022214658
:100CC0001046FFF7A1FE012221460020FFF7ECFEAF
:100CD0000134E4B2072CECD9FFF730FD0249FA20C9
:100CE000FFF732FD10BD00BF690C000808B5FFF723
:100CF000D3FFFEE7014B1868704700BFD0A7002064
:100D000030B5141E05469BB0184605DA8B232B60C0
:100D10004FF0FF301BB030BD4FF40273ADF80C3014
:100D200014BF04F1FF332346029305934FF6FF737C
:100D300000910491ADF80E3002461E9B694628468C
:100D400000F072F8431CBCBF8B232B60002CE1D059
:100D5000009B00221A70DDE707B5009313460A4690
:100D6000014603480068FFF7CBFF03B05DF804FBC2
:100D7000D0A700202DE9F0478E689E4282460C469F
:100D80009046994637D88A8912F4906F31D02568F9
:100D900009696F1A6569022305EB450595FBF3F5B3
:100DA00009F101033B449D4238BF1D46530530D530
:100DB000294600F07FFB064650B90C23CAF80030E4
:100DC000A38943F04003A3814FF0FF30BDE8F087D3
:100DD0003A46216900F0FCFAA38923F4906343F0BA
:100DE0008003A381266165613E44ED1B2660A560FA
:100DF0004E464E4500D94E4632464146206800F0E8
:100E0000F2FAA3689B1BA36023681E44266000209F
:100E1000DCE72A4600F0A8FB06460028E2D121695B
:100E2000504600F0F9FAC8E72DE9F04F9DB0804632
:100E300003938B891D060C4616460FD50B696BB9BB
:100E4000402100F037FB2060206128B90C23C8F84E
:100E500000304FF0FF30C7E0402363610023099367
:100E600020238DF8293030238DF82A304FF0010BE4
:100E700037463D4615F8013B0BB1252B3ED1B7EB6C
:100E8000060A0BD05346324621464046FFF772FF12
:100E9000013000F0A480099B534409933B78002B58
:100EA00000F09D8000234FF0FF32CDE9052304932D
:100EB00007938DF853301A932F46052217F8011B1C
:100EC0004F4800F035FA049BD0B9D90644BF202220
:100ED0008DF853201A0744BF2B228DF853202A780F
:100EE0002A2A15D0079A2F4600200A25394611F8DC
:100EF000013B303B092B4DD9B8B10FE02F46B8E785
:100F00003F4A801A0BFA00F0184304903D46D3E79D
:100F1000039A111D12680391002A01DB079204E075
:100F2000524243F00203079204933B782E2B0CD1DC
:100F30007B782A2B33D1039B1A1D1B680392002B4D
:100F4000B8BF4FF0FF33023705932E4D3978032297
:100F5000284600F0EDF938B14023401B03FA00F0B9
:100F6000049B034301370493397827488DF82810F0
:100F700006227E1C00F0DCF9002838D0234B13BB7E
:100F8000039B073323F0070308330393099B4B4468
:100F900009936DE705FB023201200F46A6E7002307
:100FA0000137059319460A25384610F8012B303AC7
:100FB000092A03D9002BC8D00591C6E705FB0121FA
:100FC00001230746F0E703AB00932246104B04A928
:100FD0004046AFF30080B0F1FF3F8146D6D1A389F0
:100FE0005B063FF536AF09981DB0BDE8F08F03AB47
:100FF00000932246064B04A9404600F081F8EAE738
:1010000040170008461700084A17000800000000B3
:10101000750D00082DE9F04791461F468A680B6957
:10102000DDF820809342B8BF1346C9F8003091F82C
:10103000432006460C4612B10133C9F8003023683C
:10104000990642BFD9F800300233C9F8003025684C
:1010500015F0060507D104F1190AE368D9F8002054
:101060009B1AAB4228DC94F843302268003318BF47
:10107000012392062DD404F1430239463046C0477D
:10108000013020D02368E568D9F8002003F006037A
:10109000042B08BFAD1AA36822690CBF25EAE575C9
:1010A00000259342C4BF9B1AED184FF000091A3473
:1010B0004D451AD1002008E00123524639463046FA
:1010C000C047013003D14FF0FF30BDE8F087013554
:1010D000C3E7E1185A1C302081F84300224494F8F9
:1010E000451082F843100233C5E7012322463946F2
:1010F0003046C0470130E6D009F10109D8E70000C9
:101100002DE9F04301F1430C0C46097E85B06E29B0
:101110001746064698460C9A00F0B38022D86329F9
:1011200036D00AD8002900F0B980582900F0838011
:1011300004F1420584F8421032E0642901D06929A3
:10114000F6D120681368050603F104012AD51B684F
:101150001160002B03DA2D225B4284F843206F4894
:101160000A2239E0732900F09D8008D86F2920D029
:101170007029DDD1236843F02003236003E0752943
:1011800017D07829D4D1782384F84530644855E0C5
:101190001368191D1B68116004F1420584F8423080
:1011A00001238CE01B68116010F0400F18BF1BB2C8
:1011B000CFE713682568181D1060280601D51B6845
:1011C00002E06806FBD51B8854486F2914BF0A2229
:1011D0000822002184F843106568A560002DC0F244
:1011E0009580216821F004012160002B3DD1002D64
:1011F00040F08E806546082A0BD12368DB0708D5AE
:10120000236962689A42DEBF302305F8013C05F18C
:10121000FF35ACEB05032361CDF800803B4603AA04
:1012200021463046FFF7F6FE01304DD14FF0FF303A
:1012300005B0BDE8F083394884F84510136821688B
:101240001D1D1B6815600A060BD5CA0744BF41F077
:10125000200121601BB9226822F0200222601022A6
:10126000B7E74D0648BF9BB2EFE76546B3FBF2F127
:1012700002FB1133C35C05F8013D0B460029F5D193
:10128000B9E7136825686169181D106028061B6896
:1012900001D5196002E06A06FBD51980002323619D
:1012A0006546B9E71368191D11601D686268002161
:1012B000284600F03DF808B1401B60606368236178
:1012C000002384F84330A7E723692A46394630468D
:1012D000C0470130AAD023689B0713D4E068039B62
:1012E0009842B8BF1846A3E701234A46394630461C
:1012F000C04701309AD00135E368039A9B1AAB428C
:10130000F2DCEBE7002504F11909F5E7002BACD17D
:10131000037884F8423004F142056CE75117000865
:10132000621700080000000000000000000000003C
:1013300001F0FF01102A2BDB10F0070F08D010F886
:10134000013B013A8B422DD010F0070F42B3F6D18A
:10135000F0B441EA012141EA014122F007047FF0A3
:1013600000070023F0E80256083C85EA010586EAFA
:10137000010685FA47F5A3FA87F586FA47F6A5FA36
:1013800087F68EB9EED1F0BC01F0FF0102F0070242
:1013900032B110F8013B013A83EA010313B1F8D1ED
:1013A0000020704701387047002D06BF35460338CE
:1013B000073815F0010F07D1013015F4807F02BF07
:1013C000013015F4C03F0130F0BC0138704700BF58
:1013D00010B5431E0A44914200D110BD11F8014BD3
:1013E00003F8014FF7E7884210B501EB020307D875
:1013F000421E99420AD011F8014B02F8014FF8E75A
:101400008342F5D98118D21AD34200D110BD13F806
:10141000014D01F8014DF7E738B50546002945D0E3
:1014200051F8043C0C1F002BB8BFE41800F0D2F8B0
:101430001F4A1368104633B9636014602846BDE83C
:10144000384000F0C8B8A3420CD921686218934212
:1014500004BF1A685B68636004BF521822600460AE
:10146000ECE713465A680AB1A242FAD9196858182B
:10147000A0420BD120680144581882421960DDD186
:10148000106852685A6001441960D7E702D90C23EA
:101490002B60D3E7206821188A4204BF1168526884
:1014A000626004BF091821605C60C7E738BD00BFF7
:1014B000D0A8002070B5CD1C25F0030508350C2DF3
:1014C00038BF0C25002D064601DBA94203D90C23A9
:1014D0003360002070BD00F07DF8214A1468214679
:1014E00091B9204C23681BB9304600F063F82060A6
:1014F0002946304600F05EF8431C24D10C233360AB
:10150000304600F068F8E4E70B685B1B18D40B2B3F
:101510000FD90B60CD50CC18304600F05CF804F1C8
:101520000B00231D20F00700C31AD3D05A42E2500B
:10153000D0E78C424B6816BF636013600C46EBE744
:101540000C464968CCE7C41C24F00304A04205D033
:10155000211A304600F02EF80130CFD02560DBE7AD
:10156000D0A80020D4A80020F8B5074614460E469F
:1015700021B91146BDE8F840FFF79CBF22B9FFF73B
:101580004BFF25462846F8BD00F026F8A0420FD2B2
:1015900021463846FFF78EFF05460028F2D0314637
:1015A0002246FFF715FF31463846FFF735FFE9E7DA
:1015B0003546E7E738B5064C002305460846236064
:1015C000FEF730FF431C02D1236803B12B6038BD06
:1015D000D8A800207047704751F8043C181F002B12
:1015E000BCBF0B58C0187047537461636B206672A0
:1015F000616D653A0A000000205230203D20202510
:101600003038580A00000000205231203D202025AB
:101610003038580A00000000205232203D2020259A
:101620003038580A00000000205233203D20202589
:101630003038580A0000000020523132203D202569
:101640003038580A00000000204C52203D20202550
:101650003038580A00000000205043203D2020254B
:101660003038580A0000000020505352203D2025F9
:101670003038580A000000004653522F4641523A73
:101680000A0000002043465352203D2020253038D8
:10169000580A00002048465352203D20202530386B
:1016A000580A00002044465352203D20202530385F
:1016B000580A00002041465352203D202025303852
:1016C000580A0000204D4D464152203D202530381B
:1016D000580A00002042464152203D202025303843
:1016E000580A00004D6973630A000000204C522F15
:1016F0004558435F52455455524E3D202530385889
:101700000A0000005B486172644661756C745D0A92
:10171000000000005B4275734661756C745D0A00E1
:101720005B55736167654661756C745D0A00000006
:101730000000000000000000010203040607080981
:10174000232D302B2000686C4C00656667454647AA
:10175000003031323334353637383941424344452D
:10176000460030313233343536373839616263649C
:03177000656600AB
:101774007856341240A80020000000000024F40031
:10178400818483827F7B7E7E7D807F7F8180818256
:101794007F807F7E7F7E81817E83817F80807D7D4F
:1017A40080807F828383818082807F7F7D7D7B7B3D
:1017B4007E7D7E83838184837F817C7B7B7A7D7C39
:1017C40080808285818283827F7F827F7F807E800A
:1017D400807E80827E80817F7E7F827D8081838007
:1017E4007C7F7F7E7F8284828081847F8384807EED
:1017F4007A77757B7C7F83818285858282818083F1
:10180400817E7A797A787A8382818383888B887DD2
:101814007577797A7C8087878586817A7C7F7F7FDC
:101824007F85847E80837E7E7D7A7A7F85848280B4
:101834007D7C7E807B7E858985817F7B7B777C80B8
:10184400828382807F80807D7B80807D808785818C
:1018540081807A7A7D8182858A89857E7D7B7C7C84
:101864007C7F8181827F807E7B7E80818081828675
:10187400837E7D7B797B7C7E818384848181807F70
:101884007E7F7F7D81807E7D7D8180808483818455
:10189400827F7A7B7B7D808186868385817C7E7D49
:1018A4007C7C83878284867F7D7B7B77797F7E8245
:1018B400848685827C7B7E7D7E7F8180848280821B
:1018C400817F7F7F7E7E7F7F7E7C7D83828080821E
:1018D400817C7E7C7B7D818585888882807C79780B
:1018E400797B7F8486888787827F7C7A78787B7E01
:1018F40084848688837F7D7979787B7C7F818783E4
:10190400828380817F7F7C7B7C7D808283878686C7
:10191400827F807B7B79797C7F7F818386848383CC
:101924007D7D7E7E8181838482827D7E7C7C7C7EC3
:1019340081828682838180807E7D7B7D7E7F7F80A5
:10194400807D7F817F828084827F807D807C7B7D9F
:10195400818282838583838281807F807D7D7C7E7A
:101964007D807F7F8280828080807F807F7F7F7F79
:1019740083828082827F7D7B7C7F7E82818383825F
:101984007E7D7C79787B807E838586868482807D5B
:101994007C787A7E7E818184858482837F7F7D7E4C
:1019A4007E7D818082848283827F7F7C7876777B50
:1019B4007D828B8B86857B7C81807E7D7E7E83840D
:1019C400827F827F7B7C7D7E7E80807E817F7A7D2C
:1019D4007D82868784817E7A7B80838384858380ED
:1019E4007B7B7F7C7E7D8283818486847F7D797B03
:1019F4007D7E7F848281827F7E7E7E8080808183E3
:101A0400837E7A7B807F7F82848383807F7E7C7CDD
:101A14007C7B80848382807F797A7B7F82838685C6
:101A2400858685817B7A797B7D8185838583817FAA
:101A34007F7E7B7E7E7C7E82807D7F8182818082B0
:101A440080807F7F7C7C817E808081827E8080809C
:101A54007E7C7F83848385827C7C7B7D7C7E807F8F
:101A640082828283827F7B7D7F7F7F818484828266
:101A740082817C7D7E7F807F8082807F7F7F807E6D
:101A84007E7D7D7E7C7C81828185858581827F814E
:101A94007E7B7C7D7E8181838481817D7F7E7E7D52
:101AA4007E7F818282817F807D818182818081802D
:101AB40081807F807E7E7E7F807F7F7D807F807F30
:101AC40083827F80807F7679807F7F7E8384838416
:101AD400857E7D84828285878E806C787B747F800E
:101AE4008A857784857776797C80818C81838E9CC6
:101AF4007E526E7D797476898A7270808281808349
:101B040090877D8D9799968E94A27F6C7A879D9D00
:101B14009D6B425558677F8696725C706F78655EE0
:101B24005A61706449697C768AB5F15C2C9E7A9D11
:101B3400A47CA89B684D744D5560385A2A2B3436C2
:101B440057454C724C475F6F825266968A82A6CC88
:101B5400DBA78FC2E2CFD0DED4C5C7E4EBD4B7C2D3
:101B6400D8F0B7485E9D8B9F9B8CA27B615B464EF1
:101B74007E8E78605D61533C314C67754100093756
:101B84002A313647461D1B330E041C556A5B6670AA
:101B940056445188C2CD753C717B7A8198C7BCA1EB
:101BA400A2A4979193A3D5D7DDDDB7A5C2EDFFF02D
:101BB400A5CFD6C3D0E6F7EDCAC5D4BFAAA8A6BEA2
:101BC400BCAEABA1A1A2A8B79D2947724C6169869E
:101BD4008B5E3D433C2E3B4F69604D50482A2B623F
:101BE40089810B06401C263F698E613949322A2EB1
:101BF400547E816D758F8E777BB2C25A429C8A73F4
:101C04007B9BBEAA77807A74797191AF9F98AB9EC3
:101C14008499C4D0884C98977E89ACDEBD8997A2FC
:101C240079616C869B8A8FABA1797EBCBE82235777
:101C340087575E7FACAD8784977F626C8CA19FA130
:101C4400CCC9889BDCD7B75E74BF89719AD1DBA6F7
:101C540093A995626881979F95BFD2AB87C8D6BA7E
:101C64006438A1804A64799B8759645E331732458E
:101C74004B405F7E5A355C6D663D00273E0C2B5B06
:101C84007A885559674016112B414156928C787FBA
:101C9400A1918230256B45446C90AFA98EA39967BE
:101CA40059738B969FCAECD3D0DFDED8B5667C9689
:101CB4007F92B1D3EBD9BDBC9F80666D829998BCED
:101CC400DAD4D8D6DFC5965662725D56718DA2936A
:101CD4007E8A78593C3D3D4D3D5D7C849199AD9D16
:101CE4008A483B5C4C3F556184897D8D938E736C2F
:101CF4005F675B5A6F859A98A7A8A1977E747C70DA
:101D040066646675827A7F979C94938C8A95858D98
:101D1400929CA896989E94807E7E80716968717169
:101D2400646B7277736F77807F847B8E8A83887EFF
:101D34007F7566656567726768686C685A5A5F592B
:101D44005D6164797C7E8692948E9294919491974D
:101D54009B9F9F95A29C9897918D8E8E86898F8844
:101D6400818885888082888385867D828E8B908A0F
:101D7400929287878788827F8179706D6E73736D85
:101D84006D6F686563656C6968707F7D747D8B8B2E
:101D940088818E8F7C776F726E6E6971756A7076CA
:101DA400787673777B76747981878A8D969690940A
:101DB4009A959592999D999C9B969297918E8A8CCF
:101DC4008D8F8D90918E8E85867C7C766F6E6E69FC
:101DD4006B6E7173737974797174746B6E6F6C6DEF
:101DE400696E7571746F6E6664656368686B757827
:101DF4007B747B86808C8D91928D918B8A8786846F
:101E04008281797C81848C8C918E8A8E88868C8F59
:101E1400939995959BA09D9F9B99998E928D838470
:101E2400838B8782837F85757C7D75796D716F68FF
:101E34006F6B6D676167626363646A7074727777EE
:101E44007071757270707777757C7E7F7E7C7C7C18
:101E54007577787C81878B959896A09FA299999C99
:101E640097958B8D8C89898389847D8386807D7FFA
:101E7400807E7F8C888D8E8B8E898D8A8B90858ACF
:101E840089898B7B7A7C76736F716F6C76747D73C2
:101E94006D746F6D6468656965606669696D777294
:101EA400707877737573778384807F878B7D828660
:101EB40088858086828780848F9290909994929F5F
:101EC4009EA2A19DA6A29D92929287827E807B7201
:101ED4007D7B7E7E777D727173717877757A827F70
:101EE4007A84857F7B777C7A747172717571727074
:101EF4006C6E6E6F71706E7178746C7776757374C6
:101F04007371767E7F868A878F8C8D8C8D8B8B8D7B
:101F140090929193999691908D8C84808485878CEE
:101F24009193919393938E8B89928F8C8B878B80D3
:101F34007A796C6D6964636067656B696D6D6970EE
:101F44006D697173747A7D868283838385848481C9
:101F54007E7B787E7F7F86848583847E82817B827C
:101F6400858383898482868A88898A8886898F8AF8
:101F74008B918F8C8B888985818187847C807E7FFF
:101F84007F7C7A7B7D7B7C827D7B7F848382828362
:101F940086858177766F6B66676464676B706C6D3A
:101FA40071706A6D6E6F7176787F7F848C8E8B838F
:101FB4008A8B888A86899088878B938A898A89877D
:101FC400868A85888A8C8A8D89828383827C7E84B2
:101FD4008A88898E8F8A8386867D7F7D7F7F7E87B0
:101FE40080877D787C746B6A6C6A6D6F7E7D7D7989
:101FF4007C78797677787C80787C7B796F71706E69
:10200400676C686B6D77807E7E79807A7D80828153
:102014008D9392949C9B9C9EA09E97968C8A8C9464
:102024008F8E98988A89878C837D847F817C7F8238
:102034007F7D807A7975747473747A7D777D737219
:1020440071716C6C6E6B6F7279737070776F6D6792
:102054006D7372757A817B8082898587818684839A
:10206400827D858186848982858487847E7C7E8145
:102074007F85848C888C8C8F8E8A878F91898D93B1
:102084008B7E87898B7A8180837E85858289878C04
:102094008F95808582968990848F8B717767715F25
:1020A4006A615248545E6669626F74647D89787DA2
:1020B4008697A8A39E9B7C7A736F5A4242526C9374
:1020C400ADA7AABBD5D5A89B796C643C4851725C7A
:1020D400516A7487A19AAFA6A1B8B6BC969F8C9496
:1020E400907C8D81879BABB3B7B5A39DAFAAAA8221
:1020F4005235213F344063564F36495E6D747977CB
:102104006B89805259655370717D908A948E8E7C50
:10211400858C8699A0BBCFB7B1A96A63685E544A1F
:102124007495AAB5A39A8E87817280869080739ADB
:10213400915E677B786168838D9F8A8A7B6B8575E6
:102144006074837B819B967B7A968F6981875C64BC
:102154006C6D5F495B69605D766B6B897F737E82B2
:1021640084606A715E758A846B8E9998ADA7A09617
:102174008098908997909A97A3998488AA97799937
:10218400987A6C7875676D736A5C6576647E977D02
:102194007F858F70839A7D5A7787525066646380F7
:1021A400767E7E8687817E8F898B9C9C87759396AD
:1021B400786E927C6D8983647071776B7593838676
:1021C40099987A8DA5886E8480595179765E869225
:1021D4007F99A68D7E868B92869092808B90977342
:1021E40070988477949B7A7496746374766B617533
:1021F400706C8F958F8E919282887585755E8077CD
:102204005C71745F78847B7976768880888E8A9016
:10221400927C6A7A6676786F7A80837D887E7A7B10
:1022240081838180948996A4959B877D7574737A44
:102234006D84937C8699878291817E7B7B8A7D7372
:102244008B7986967B7C88847D8176777E6E6F7BA6
:102254006A66756E65717B7780888C888793757BD9
:10226400806764696C78756B87928992967F7E85A6
:1022740088808383868984807D919688878C8382F5
:102284007A85817C827D847C7985878E98929897E3
:102294007B7E836C6E6D6B79787B7D7E8B88808290
:1022A400756975736C767B878A807D7C838A827C72
:1022B4007D7D787C7D7A79717C806F74817A7E8A69
:1022C40091979590908683847B7B7C6F646B7A7EF8
:1022D4007D938D7F8F928B867B7D7F7B79767E7FCE
:1022E4008188848B8A83807A7E7776817A767A7AFB
:1022F400848E95948E877F7E80787D7D858C7F808B
:102304007E7C807E797C707674767A76808279742D
:102314007D817E80867E7C7373767870767C7E7F0A
:10232400767B7C81848F98958D8E8B88838485823F
:10233400847B7E868A8886847E8282888582878B57
:102344008C8981837F7C807C837E837C797B787499
:102354007774726E707E7B7E8489807B7F7A7579D8
:1023640075798480817E83867F847F78746E7173AF
:1023740076838A8583878A85898781827F7E807B2D
:102384007F7A7C8280847B7E8484929798968B8BE0
:102394007F8182787E80807E7F838283867E7C7C40
:1023A4007C79777E7E83807D79777C7E7E81847F55
:1023B400807A79797672736F6D72787E828F8E8A65
:1023C40086887D797D7877808384848687898B84E9
:1023D400857D7D7C7E7E8188888489847A817E7CEB
:1023E4007A80807E817B7C807B79767179787C842D
:1023F4008D958D8F8E8786867F7F7D807E83817C81
:1024040085827C7B7A7C7B76807D83827F807679F3
:10241400807F7B7D80827D847D7F807B7B727679EB
:1024240076797B7E7E7B847E7C80858482878382B2
:1024340082858888898681817E837D808886898952
:102444008F8C8788837D7C7A7A78787D777B7A799C
:1024540077767E8180888583857E827F7F7A7A7E87
:102464007D7D7E7B7D8181827D7E797E7B787A7C99
:102474007B7B7B797F828484858689808181807F50
:102484007B7F7A7D7E83878689898784807D807F30
:1024940080828887868282858181807C7A7F7D8024
:1024A4007F8587878B8580807E7B7B7E807E7C7921
:1024B4007A787572706D6F787B7F868B8988848457
:1024C4007F7D7A777D7F8181828787878B88837FF1
:1024D40081827E7C7F817D7D7A7C7A797A7C848519
:1024E400888B8688867D7B737677797D81848588E1
:1024F400838284847F807F817D7D817C81838281CE
:102504007D7B7E7D8181878A868B838483807D78B1
:102514007C7C777B7E7C7F7E807A787A797A7D7BFF
:10252400807E81807E817C817C82827C7D827F80B2
:10253400848986808583837E7F8483808080847E73
:102544007E827D807D7D827D7B7E7F7F7C7F7F819F
:102554008482828586808184847F80807F827C7E61
:102564007F7F7C7D837C797E7C7B80808083898374
:1025740085817E7E7C7E7A7B7C7E7E7D7B807B7982
:102584007C7F7D808382828483828580817B7B7E45
:102594007C7E818583868B88838383807C7E807F19
:1025A40080868283827E827D7D7F7E7F7E7B7C7D32
:1025B4007C777979797E7B80838286868288857F21
:1025C4007F7F7F7A7A7E7F7C81878580817E7F8111
:1025D4007C7E8284807E81847F7F7F81827E7F80F7
:1025E400807D7F837F7D7D7A828278807D82837502
:1025F400888A7D8F86818D586F84788D838A8671D1
:102604007D7E82847D9186797A7D7F7B788B8885B7
:102614007F7F818A905B758A7B817880816F8086D9
:102624008284858D88827A7E7C7D7F7D8187858981
:1026340087918B55607E818C849292727777777ABA
:102644006F7C95907B84786B7B80AA987F74617E85
:1026540098B69B59656D768371927D828B757A9756
:102664007A6D8A88A272637E808D9199A39F8F3838
:102674004E76637B88A1B37C5157407694B2D19B4C
:102684005A4D5F86878698908A746C98A93D5AA69D
:10269400988A59649E9B9391756F5C7997615C915C
:1026A4009F9A7970919DA69C363D7E7785778EBEE4
:1026B40092485C7C9C927E8B857078898679678150
:1026C400898B9495412E728BC3AF9C9E6448778608
:1026D400818D828A74565F707C898BACC9CBA40CC3
:1026E4001F8C94A8958D7E4A488F92888D94AC7DDA
:1026F4004A4D6A769A9DA8949D72125D9699AFABE5
:102704009190584D6A7E82809B896E50496AAAB91D
:10271400ABA1AF9F2B146191A49AA6BB7A3D416CE7
:102724009D9D9C9492754C5782A0A6B8C4B83F084E
:102734003C729EA3B7C28E5546336797A0A89C727D
:1027440053526187ADBACECF511843618499ADBF5E
:102754009260453C689F9FA49B6B5F515F87B5CA9D
:10276400E39F2F2E4A5B7C8EBCDB926855516C7FB5
:102774008D9C837E7E5F6785A2D9B447596C5B5D6F
:1027840060A0C8AC91655566586293A090928C7E07
:10279400797BBCB85D61766E6D4F79A79692857230
:1027A4007D6E577E82878D89888B85B8A144637737
:1027B4006C7E6892B98886746078826D8274737C4A
:1027C4007F899093C0A73F5F6970745D8DC0907BD3
:1027D4007B686F67698B8C8C8A88998D81A98F49F6
:1027E40074797E755F83A08A8D8F736D5F71867C2B
:1027F40083968D99868EAD7B5674837E71708D8B96
:1028040086797E876B526B82858390A293989B70A6
:10281400585F6F8E7E8A90827C74727C84767B8310
:1028240097969594967C595769807A8CA89E7A7766
:10283400706C6A6C8699917E89979B896A5F6B79C3
:10284400767A9D9A878185785F5A6B808B92A3AF45
:102854009D855E56636B7E959A917E78826C5565F4
:102864007A858E93A9AA9D93826F595568727E8248
:102874008F9F9B7B5C5F68657395ADB5B8A17973D9
:102884005452626B7E7D8D9E9591887B755C6474D9
:1028940085909FA9AA917C6C5D5F5A63668192A121
:1028A400978E948D80796E647483888FA29F9177BC
:1028B4006557535D768C91949FA8967C707A7A7450
:1028C4006B7881747786888379747B83808491970D
:1028D4008D81827D766A71868C7E7C817A6C72842D
:1028E40080847F7C868F8F8A87887F7B736C737DDF
:1028F40083898A818A7D777F87897D7B82808184B1
:1029040086847C7475847A7F7E85847E7D798678DE
:1029140071818D8A8B857E807A767E847C7E89889F
:10292400827C7B7772737480847E8590908A7B7EB0
:10293400827E777D8D878089837E79787B75756AC1
:102944007D918F8989918B776A778B90827A797E52
:10295400847E6C6F767E97907A7C837E6F79817E9D
:102964007F868D8A90817F7F746D717E7F7C7F826C
:102974007C7E7A797B83889292918D79777D76714A
:1029840079858F887A7179827D7C88807B8982754C
:102994007D8C8D82787885887F848880747D7E772D
:1029A40081837F817F867C737C818780898D81820E
:1029B400837B7B858076747E838A82767C7D7E763B
:1029C4007888868D918576737C77797C87888586EF
:1029D4007F7B7C7B79747B827D8A8B8485837E81FB
:1029E400786D7487898C918778717C787E7E838AF0
:1029F400897E7B82857F7F8689877A807E797884C9
:102A04007D7A7C7981898F827D837D6C79838584CD
:102A14008E8C8B846D70757B7F888A827C7D7C7BB9
:102A2400767B807D8080827A8083868F8E847E7F91
:102A340076737E82807F7B7982877C7C89817E83AA
:102A4400817A79818A897F7E898571757E7F7E828C
:102A5400838787807B807F7D80827F7D877F87855A
:102A64007C7B82817E7E7B7A767D7C807B7E7D868C
:102A7400848386808283837D7E7B8086847986823C
:102A840074747A808183818688847A807A727B8860
:102A94008685878081807C7D84847F7B81827F7E24
:102AA4007C7C7C7D828485828688817B7B7C787B30
:102AB4007B8C8B7D7E80777B7C7A81888684878300
:102AC400807F82797C7E78798082848886807E7C0F
:102AD400797A797F82867E7A81817A7E8480848500
:102AE400808081808580847F7C797A7F7F818383E5
:102AF4007C807C7F84857F888478787B7C7D8387D9
:102B04008986867E7E77808384817E837E7E7D7ABD
:102B14007F877E7E797C7E7D8383868782817B75B9
:102B2400797E7D7D868385848384867F77787C7CAB
:102B34007984828486827F80787581828282848689
:102B4400847E7C7E837C757D87848688858583806E
:102B54007D81797B807F7D80817D817F7A83877988
:102B64007B84858382827C80807C817D7B7E808067
:102B7400828480807E7D83857F727A86817F7F7E5A
:102B84007C817E7F86858380787E827D807F86833C
:102B940081827A768485898B7E7B7D7E75818A832A
:102BA4007D7A747D7C7F818788878B837F838D8901
:102BB40095978E8D8D8D8E8C82786C675E5D615F4E
:102BC4005B60646D665D5C636B67787B7A76737655
:102BD400898C848A93959CA1A2A39CA19F97897EAA
:102BE4007F7B737F7E8470726B6B7A6D7375727387
:102BF4007D6D80A0A35884B06C908080807E8179A4
:102C04008C536E7156665C6555465A5B4B4D3C530E
:102C14005A443E4E5E6B74757FA49A8297AAAB9811
:102C2400A8ACAFA4A997A6B9B4B19F9590A9AEA634
:102C3400ABA99099929094989190938C838180827F
:102C44008C91846B5E495D5B5C5B6560595856533F
:102C54005A5B47414B5B5A645869757979736C7652
:102C64008C888482766D6B6864758181797E7E74CC
:102C740081767980887A827E8380909597B8A9AD91
:102C8400A9AAA5B2B29EA1B7C2BFBAC2D1D5E7DD87
:102C9400D2D3D2DDD6CEC5C0B6BAAEA8B7A78D8979
:102CA400877E8475626C766A6B585744404E4850F0
:102CB400493F311A17252401000704171B1B22233F
:102CC4003F573E47564A41636B6C745E797B71860D
:102CD4009E7D7A8A89837B82968A8AA0A2A1A3AFE9
:102CE400B2BCD2EBDCB9C4DABAB3C1B08FA6B29429
:102CF4008E9AABAF9AA0B99F92B3B194A3B1AB8FA4
:102D040099B2A993A4B98B8AA0937E879C9171856B
:102D14009877698C9D86948F838E827E89806A7968
:102D240090736D7B6B6A7F7C686973675F73757181
:102D34006C646E767D827273706363655C4A594F0E
:102D4400424949504B43576B75786A6B6B756A7D82
:102D5400734C757D646E77687282756E7A7B7B7155
:102D64007983757882858984879494827892918016
:102D74008A95776B74726B6A74747E8C8787848D82
:102D8400938E948C919D9B9AB0A7A0B8B59EA6A74C
:102D9400A4ACAAB5B9AEAEBDB8BFC6BABBBBADACE8
:102DA400B4AA909D99808681767573717F91907D88
:102DB400756E6C6F6D6657535355554F4D51545B3B
:102DC4005857574546424A574B4F524D5D69696CB7
:102DD4007672697D797B7A80816E838B787D83833B
:102DE40098999A979298A59993A8A09EA9A6A19E0E
:102DF400A2AEA29FAB9C929E918E96909097929732
:102E040091798684717A817276706562635B5F62A0
:102E140068747988796F736D6F7B67595E645F67D7
:102E24006E6C76707C8579777A7A76737D79727038
:102E3400748788868F91827E8D88878C87807B8239
:102E44007F778487899D9E9991858F999B969D9E76
:102E54009293948F949A979599998B8B8B8C91924A
:102E6400969B938B9294867F877D7A736E6A746D3A
:102E74005C69675B575A5E6269736B625F6C705F13
:102E8400596363565C625F646A6C7B807776736DAA
:102E9400757D7E8184818795969097A0A2A8AAA823
:102EA400B0AA93929B9594949593A4ACA4A699925A
:102EB4009799928D8F8A7F858282857A7279796DCE
:102EC4006F6C666471706C6769686766646A666073
:102ED400616666696557596564626570737B83854D
:102EE400828180808A818485848488919199999B48
:102EF400A39D99938B8B8F9794989A949A9997956D
:102F0400959294979C9C9486808883767378737743
:102F14008083838075757F7D77736D686A6B72714A
:102F24006B67707A706E6F67676B717A7C766E7898
:102F34007D7777726B717379807F7773827D797B0C
:102F4400817E79878B948F82899292918E8A8789E8
:102F54008D959C989AA3A79E94969285888E97990E
:102F64008F8E95978E8C8A86898C8B8A827C7A7DCB
:102F7400777573716D6C71757C6D6A6D7470676053
:102F8400595F5E5A63675D656E6B636B6C62616902
:102F9400727676757B858B84817E7C81868B958F1A
:102FA4008B979793999B9A9796A4A99E9CA1A4A763
:102FB400A79E9694928F9299979596968F8B8A81D5
:102FC4007C73777E7C6F71767679706E6C676267DE
:102FD400696464665F5D5F60615D5F676C6A6C6EA7
:102FE400747A79797573746B7279797D838A878D34
:102FF4008E8B8D858A988E8B9396979CA09C9995A1
:103004009092969594949694989590918985918FA1
:1030140081838986848D857D7875727476767579D9
:1030240077777E726F6B686C706764696B6D7776A7
:1030340075746D6C6C736F7074727277747673746C
:103044007A807F767E8483858C8B89868682888746
:10305400858E8C8B95949092939796938D8E8D906C
:103064008F939796938F8F908D868A8C868790887E
:10307400868483858079787B7475797671716D6EB9
:103084006C706D696B6A68696B6767696B6B69659E
:10309400686A6A6E7577737576787D7B7D7F797DD6
:1030A40081818384878D93938F8F9393929A9C9736
:1030B4009394969794969C9797959697938F9594B7
:1030C400908C868582817F85837F7976777473730C
:1030D4007676716E6F6B6A66696B6966676666673A
:1030E400686A6B6A666C6E6F6F747977787A7B7ACC
:1030F400787B7E7E7E7F8488868B918F90918E8F65
:10310400939091979592919494919194979390918F
:1031140091908D8C8C8A8581878282888581848236
:103124007E8082857F80766E7170727172746D6F2D
:1031340067676D6E6C74736A6D6F6F68766F7C7F92
:103144009769497171817789987468717C897E98CF
:1031540099938D8A8F919B9D9C9B8D867F7E899967
:10316400A7636B7064736A788D737B7D7477697FF2
:10317400827E827A767C74808CA1879C94A6A26CD1
:10318400A5B89B92968B817CB86939917B7D8F45DC
:103194003C3755594D47425624262A5D5D646233B7
:1031A400423E385B6E80867E7E746B6A76A6D5ACB2
:1031B400ACC5D5C3A1ACC2E0FDFFFE8D7BABB0C9ED
:1031C400CDE3E1AA7D7D879D9A84A9C0986E49517B
:1031D4006F83A3875951425A584D332B754C16208F
:1031E40026563B0F3D5250310B1A35251D1D4060AC
:1031F4006D615F6A6B390F68705C7F92A8B78C8BC6
:103204009A838A9FCBE4D1B4A8AEC6CDD1E1FFFFA7
:10321400ECF3CD97A5C6DAFDFFFFFDCABBD6E3F3F9
:10322400F8EBECCBB2AB9C96A6B3A9B8ACA2500F0A
:10323400384A36465F887E1900000000001F4A2E77
:103244000A00030007233F73645B0B001E16316BF7
:10325400889B8C56483C2C47718CAA96827E705E63
:103264006F99BBCBC2A36C888D8D9EB7D0D8D2A4E6
:103274009F988D8D9AB9C9C0BCAD957B839CB2CB08
:10328400CC935A848F7F8E98ACBD9891876C647D63
:10329400A3ACA99DA39B8F8A8F99BEC4BF74538F7F
:1032A40082717890B3B38480785E4D58688B967F32
:1032B40087755E5E728796919E62436A6870829596
:1032C400A6B88F848B6C65758FAFAC96A29B8978FA
:1032D4007C89A4A896523B6E59495D6F7574484128
:1032E4004B322735465E5746535B58494344636A1D
:1032F4006D2A003942313852646D4C414F4F4C5164
:10330400678188788E938F90A1BCD4D7D8CA8BB8A4
:10331400D9BDC9E0EEF5E3D3E7D8B8B7C7D6D9C964
:10332400CCD8CABEB6B6CBD1BFB27559827868754F
:10333400828D88635E705D40394E5A58556A605874
:103344005956676563605A2E2A4E423A535E636942
:103354004C515B4C494F4F57676A7E8B949795A3AA
:10336400A49CA2AE8575928E8B9C98A4AF909DA4CC
:103374008C81818587818794A4AAA49BA2ADA29DF8
:10338400A28E737E837C83858BA49991A5977B748D
:10339400807A6D655D687A747C8B84857C767061D7
:1033A4004C4A51433F414F5F5D5A676B66646460AA
:1033B40060585D6C737F85889398999893928688FA
:1033C4008988807B848D908B999C96979F9B9795F9
:1033D400969B9DA5A9B6B8B4B5A9A2A1A39B8F91AC
:1033E400928C95918B8C8983786E686958595C5A54
:1033F4005D6066686666625E5D5F645F6060605DB6
:103404005E696C6670736C6F71777D7974797274B0
:10341400808C8987858B92949E9E9A98928F9090A7
:103424008F8C969997969CA1A09C979DA0A09AA0FA
:10343400959A9F989490908E8C8481767572716D14
:1034440069625E5A6062595F5C5E55596064656585
:10345400646462657678746F73727674737374746B
:103464006F71747676797B7F7F848D8F8D88888663
:1034740089919498999CA29FA1A0A0A3A0A3A19D87
:103484009DA8AEA8AAA2968E8B8E8D8889878580EA
:1034940082887F767877746E6D6964666365676C1D
:1034A4006B67666769706D6D7477756C6969707444
:1034B4007471736C6A696F7070717573676C707313
:1034C4006F726F7275828386959392949E9F9A9180
:1034D4009AA5A19EA5A49F95929292979698919051
:1034E4008D898C9191928B8B847C82828585898A4B
:1034F4008785807B787C7D7B76777A79736F6B6642
:103504006A6B6A6464625E5B5E6A695F6164605E82
:103514005B6567686A67676A777A777A858C898F6B
:10352400979A9C9D9B9D9EA0A3A8ABA6A19FA1A09A
:103534009A9598978E8D95938E8B8A888B8B868897
:103544008986827E87928F8A857E797673706D6C88
:1035540068625B5C5F62605D5B5957585E5D5F608B
:10356400686663646C706D737C7F7F83888C8C8FDA
:103574008A8C969B9F989093969A9A999C9A9A94DF
:1035840090919496928D908D8B8B8587888A7F7D80
:103594008986858586878383878585898786837AD7
:1035A4007B7F7B7A7A746F6B6A656A6C635F656331
:1035B40063645A6062656A6D6F7474737374828530
:1035C4007F7F847E80818488847F7773777E7D7E0D
:1035D4007F888685888A8E8A9196929295979A9BFF
:1035E4009FA0A5A7A0A2A1A49B929BA1A4A0A09CDC
:1035F4008F8989878B8784837E7872726F6F6D6CF5
:1036040069685E5858585755565B625B57595D5DFB
:10361400616A6C6C716F6E6F71797D8082817C7967
:103624008082878B8483848886848A88898F919515
:1036340091949C9D9B9BA1A4A4A0A1A09A959D9DBF
:1036440095918D8D85817E7F807B7A77727573707D
:1036540074776F6C706D6D686A6B6E727175797664
:10366400766F696E737B7C7F7B7C797779787A7AE5
:10367400797675737874787D78777879797C7F7CBE
:103684007D82868A868B8A8C909196969A9D9B964B
:10369400959797949395948F9092918984827E7E46
:1036A4008184807F79716E72757175797D7C777C88
:1036B4007C78817D7776787975737A776D6A6567BA
:1036C4006761606964656B696C72767273767D7A22
:1036D40080878C878C92959B97969298989B9DA2B5
:1036E4009F98989894969A9798928F8B8C8F8E8D9A
:1036F400898488857E787A7D76777275797272731B
:10370400717578757579777173757B7873776B6C70
:103714006B6C706D6C626464676A6B6B6E696B6C06
:103724006E72727B7C82858C8F8B8A928B8F8E9546
:1037340098939C8D968B8C92888C92847F868B8FA9
:103744008B9693938B8B8C898A8D8B8F8E91909390
:10375400918D8F898E8A8481847E807E827D7B7D1B
:1037640073736E6A6C6C696F6D6769756B6F5E5CA1
:103774005D52676669655F67727879757A7D847E64
:10378400717989938F919EA295888DACA796867640
:103794007D73766F7789809EAAA5BEB29B87807F52
:1037A40072788A9CA2A0999D998D8883797779846F
:1037B400918172736B666F665A727E6D6C737D6AEB
:1037C4005D595A59535F7B9680797773787C8887E3
:1037D4008587908B7C7F878381818A8F8A7C6F80A9
:1037E400878A8A8C8889907E7A7A7A777D818283A7
:1037F40088918F909B9F93939CA3968D9099968785
:103804007B7C83828E958D757576605862655E6B60
:103814007B817C746C6E7274787F7F8A8D7C8177F7
:1038240065656F7279767379787571746C5E64719D
:1038340073737F79798B8C80767B82848B9796AC3B
:10384400A99C9B9A928B968B8E9AA39E8F8CA09800
:103854009A9EA7A59490817C7579838D89838086AF
:10386400746C7170655E6C635C686158666C7572CB
:10387400787F80796A72786E71787F7B747B7C79CB
:10388400666F74636B726D6C7884807E8683827CD1
:1038940084979C9899A1998B8E9391949FAA978FC2
:1038A400938677787F7574868F878288897C7A83FC
:1038B4008B7F747B8579808F988B80948D757589C7
:1038C400796A777C64717E7C767F867A7576857A70
:1038D400676C786B7381897C6B6E78695A707A64D3
:1038E40065756A626D7673808B8F8689979B8E92DD
:1038F40099938E9BA69F948A93877884977C7386EA
:1039040081717B87827E84948F8E959B89838E8F31
:103914008088968D8883958969697C63515E645536
:10392400546F706A6D7670686E7D7B757877696F99
:10393400858A857D8F977F7C95876E798E7C788943
:103944008E8886979A8F889895898B9E95888D9670
:10395400927C848F826F818A71728C7E67778B7E72
:10396400768C958A7C888D827B838579808B8C7913
:103974007889796167775E4F666C56586E716E769A
:103984008A807B7E898479818275738690897B8F16
:10399400937B73867B65707974737C7C7A79878E6C
:1039A400898B97968C8890918C93A49D8C989E8AF1
:1039B40080948D8187938B868A90928A8C908C8652
:1039C400868580767974777F837C6D7C7C6B5F6978
:1039D400614F575C5D5C636870777C81867F7D8115
:1039E4007A7A77787A8391847680877E79827F71F8
:1039F4006C6D7279797E8A8F898D9091989794975E
:103A04009996969DA8998B939A8F807D7A79736BFA
:103A1400717E807C797C7D7D7A7E84857F77767BE0
:103A24007A848F8B87898B82797473736D686E75D2
:103A340079787B7F8187858887847F7B7672717BA9
:103A44007F74757C837D776F6D736B666B72788220
:103A540086898C908A8B8A8C938F8D8B8C999C9180
:103A64008F9191897D6F72787478767B858B8D8C3C
:103A740088838687827B7A798285898B8886827F10
:103A8400767269656563656868656871767B7B765F
:103A94007476787C7E7D79848D827E828589918816
:103AA4007D7A81878C8C8C8A878F939D9998979641
:103AB40092908D8B9198928A888287847E716E6BA6
:103AC400676E76767171758084868385807A777661
:103AD4007776808282817E7D7C7A71655F626C728A
:103AE400706F706E72787F807E7F7C7C7C8587911E
:103AF40095938F888686847A7B798183878981816F
:103B04007E82878B8B837B7D7B7F89969D94918A34
:103B1400857F7F848484848382848485838A8E944D
:103B24009895908986858C8F91938E827C7371731E
:103B3400716E645E5C5F676C6D6C6D7373747670CC
:103B44006E71747D838A8D88847C7B7479787373B9
:103B54006F6C747E7D83868D8E8F8D8B837D7F814C
:103B640089939F9E9C928F8D8C8D87807A757982A4
:103B7400898F8D908F8D89877D78737178828C8DF4
:103B84008A7F776F7374746B635F626D7381878AE6
:103B9400898784867F797675757F8C9498928D86D3
:103BA400847F7F7D72646266717B83898A88868A5A
:103BB400877E7779777F88909894908B87848181AA
:103BC400797271747C818A8D8A88888C86817A74F2
:103BD400757A838D91928D84817D7C7771635C602D
:103BE40065717B8182848386888076706C707E8523
:103BF4008D908F8A847D797C7469636465727E8913
:103C04008A8A89888F837E787A7E878D99A0A5A2F7
:103C1400999187817A76696B6B7B8F95949796904F
:103C24009088796E6C6E79808C959F9C8E82767666
:103C34006E695A5A646D818989858888867A70602C
:103C4400606473848E97A3A78D7D706A615E5259F8
:103C5400637689949493989088766C5E6771858E68
:103C64009CA7B7B4988C7E796E6D58627083959CCE
:103C74009F989B9486715D5865748490A1AEC0B082
:103C84008B736664615B516A8099A6A3989395824D
:103C94006951414D65768D99A0B6B88D6F5C544DD0
:103CA4005247496F889DA68B7E897E6A594C48721B
:103CB40094A6AFC6CDDCB486756D71616C5E90A6BA
:103CC400B0B3A394897C5A341B365699B4ABCFE86D
:103CD400D0966A4F475652618BC1D4D1D9C6947CD1
:103CE400703B2A27366C8BACD5DDD2954D2A0C005F
:103CF40000043A7FA8D4FFEDC09C823B00001B481F
:103D040071A2C6E6F3D0866568587C92A3E8ECB845
:103D1400926A4A4F4C482A699BB7DAEEFDF6E79B54
:103D2400401128020012458BB3B5B4CBCFC28651E3
:103D34003A55968695BFEEF9CF82394343342C51D8
:103D440081DDDC9E7C766F52190012517C6E8EA050
:103D5400D3EAD86B3031281222306FBEADB3B4B879
:103D64008B53230E3C808DB5D2E6FFFFD28A855C4F
:103D74002B295085B5A9A8BCC3A87E3F1A2660820A
:103D8400B6B1BAD6DBA550503118114172BEAD9F01
:103D9400C5BA895B43183E6486ABBFD2DED4794989
:103DA4005C4B252D4364A6A5ADC0C0AB72361F3C49
:103DB400405999A7C7F5DC855C57384141477BA931
:103DC400ABD3D8A37E5432283C618FAEBDE6FFE668
:103DD40098876C443944679BA096B4A4928051336D
:103DE4003F4853809AAFCDD69E777A582A283A63B3
:103DF40099A3AAC3A47D72533A39456B9C9EB7E339
:103E0400B27E7767494A565B899ABAD8BB938F7753
:103E1400462A304B70A8A8C6C9A39F794B3A403DA7
:103E2400598A94C5DDB6AD9E604D4834518BA9BD09
:103E3400D3A7A1AF7A4D44485E6D83A4B6AA9898DF
:103E44007B655B5646577A959E9EA6A78C62615009
:103E5400454D65757C959A9891826C6056596D882C
:103E64008586B9A88F97855E586262808D95A9B1C1
:103E7400B0A6887B7A70878D777680817C868589E9
:103E8400856B7F8F82817D7C817D7F7B7A8A8C723A
:103E9400727B6D6175767573768A7C808D9D948056
:103EA4007A8482636983817C908E7F747781706D5C
:103EB4007C80859099918691886867767667778506
:103EC400898B81867A6B737D727881878F87858FE2
:103ED4008D7D7E81777376838B8D9892898D8A7E92
:103EE40082897E7C837D788B959090877E77757CA4
:103EF4007E7A6E7583857C838F86767B7F6C646E19
:103F040079777E8C9089838581766C68737F7882DB
:103F140089807D78717578787B7D828D94959B8B73
:103F2400879381777F80827A737E817E8A8B7C7986
:103F34007D777879849A8E8E998C878983796F6A54
:103F440070716C7C8F8C8B8D88857C787872828A7A
:103F540080828788847A6A646D70707882838081B5
:103F6400898A8E8A7C787A888C8781787679797642
:103F74007B838281858282828286898888837C7B16
:103F8400878C80797A7B797E817E80858886898B0F
:103F94008987817B79777174797F878C8A83858817
:103FA400827B797D8383858076737372777F838246
:103FB4007E7D7F83848B8D8B8D847B7474766F6A16
:103FC400767A7A7F818181847F7A787F8D8C817DF6
:103FD4008588888B8F877C78747A80898B857F84A9
:103FE4008D847E7C7377818282879098938F8C8175
:103FF4007A7575767778777777808075777B7E8426
:104004008C89857F7E81807E82806F6C6C6968710B
:1040140080868B918E8884828A8980858A8B84832A
:104024008176736D6971797D7C7B83888E8C8C90AD
:104034008C8B887D7D7F85807B8788867F7F827B54
:10404400747670737C8D8F8388817E86888B878558
:104054008585898D918472757873726F7872707C9E
:104064007875748087848B8F8E88868D8786827519
:10407400737676766D6A70737B80857B777F797BC8
:10408400828C9088878A8986878C8D888E887D7EAD
:10409400898A8284827E7B7474766E7178787E8E4F
:1040A400948A83868784828487848886817B797CCA
:1040B400797277797475767A76797B737478848774
:1040C4007D7E7D82868D908A888A88899293897D77
:1040D4007D797A7C777874787C74707481827F8639
:1040E40088807F838C8F8E8B87827D84847975789A
:1040F4007C818287817F7B777B76777B76727E84F7
:104104008383878783847C7A798485838F838D9165
:1041140087808181757374778087858282848074B7
:10412400777B6E6F77737284797A938972748D7AE0
:10413400739094888C96938F8C8075707274788049
:1041440085807D818585837B70787E8286898F904A
:1041540087898A7E7D808283878687848188827628
:10416400716961666D7173797F878D86898A7471CF
:104174007A6F71859389888E8B867778877C6F8632
:104184008674879782818B7672797371797E808E3B
:104194008F8B958E7E8888868A848F8B7B808673AE
:1041A4006679715E70716978858890938A86827B5E
:1041B40083897F838D88888D828B8165738365660F
:1041C400897463858D7987877C81858585838693CA
:1041D4008C8C918C848B8C6F7A8965658368597A11
:1041E4006B58717D7D8A93929A9190977D798673AD
:1041F4006F86878293A88C79988357667963657DE7
:104204007A7C878D9287848C84848B858285837B5A
:1042140083868A8F90917082905C58795F496B7520
:10422400717C8B9C9B8F96987A747C655D6B757E94
:1042340092A0ABA2A7A872738C5942686150758F83
:10424400959C9AA59A8278756C6D756F7A8A979CFD
:104254009D9A9A949891635A76543B616E66809DB8
:104264009E989DA49A806A705F515D687D8C9AA81F
:10427400ACAEB0A79170434F5D3446828F89B4BA17
:10428400A9A0867869554B55627587A7B3B1A89DD7
:104294008B736E675F61545589887D9EB08989925E
:1042A40077716961797A687F898B8CA493838C8A0E
:1042B4008785828B8E87785377795D708F89839D0C
:1042C40094828A77687A66617589858FA3948A83D4
:1042D40079746F6A7976817E70989377809A7F6714
:1042E400817E79726F787567637C8B899A9C858CE3
:1042F400998C7F7B86858B8A738995797C9691705E
:10430400686C5A53587084877585B9AB8F94A59996
:104314008080807E82888989775558706853748933
:104324007A879496959D8A888C686A8A8C7B889211
:104334007A6E6A60777E898B8E7D486C867C7795F1
:10434400A387989182897F5C5E7169728E9082875F
:104354007F786A6C728197A4A8AEAC767C91734F17
:10436400668777818991856C5E6F81727992A59C4D
:10437400A4A59B836C686B6F79858C9766748A6C33
:10438400596D7E798B7B74847E676F7C7A81899684
:1043940094888C8C7666676E80788089A08B58842C
:1043A4009272789F9A909287858767597075747D09
:1043B4008E9B9491856F797D838A989896A59C5756
:1043C40056754F416A8D8E978591A27C5B6B7F8079
:1043D4008185848E8A807A756F707A8D9091A6B269
:1043E4009036587E595D808791988F989473617E3A
:1043F4007F868A848D917C6E6A6A6E716F808C91DF
:10440400AFC1954A707F5E688D949192838673598B
:10441400597A827F818C9FA8968582827A6A6E7C83
:104424008898A9AA8041637E6369859699917C8165
:104434007A635C7280888F9092927B6C71726F60E9
:104444006278869DB0B0813D5F816A69869EA7A12E
:104454008786826259727F8C8D85888D8578868F58
:1044640082797889969FA7A57F45658E7164818B33
:104474008E8C78797F73636F8080838280857A7471
:1044840087979074707F858C8E966C396481707672
:10449400909C98927D79826F65798E9791897B7BC8
:1044A4007A6B7A918167657A95AAB1A46D507A89FD
:1044B40071738A8D8D8372757F74646F87948D7F19
:1044C4007A7A7F737B8E8B7678848B9FA4985B5BE0
:1044D40095946F6F8689887D6B707C6F6E819396DF
:1044E400938779727B7A87907D6B71828D969B809E
:1044F4004054807F6D80909093887D878968657033
:104504007B81867E788386859C9D856A728698A148
:10451400936C5180967D728C91988A757882705BC9
:1045240072929999937E757376798C9071556B8795
:104534009F9E9462507F8267748F8184797980888A
:10454400797A8C9296867F716A7781867F71666BA1
:104554007D9294927A548BB49E949B9285805F57FB
:1045640077816E697C899499866D606C7789A6964B
:104574007C8898A38F81623F6A796388ABAA949000
:1045840082665D4547729CAAAA918F8C85767B7E54
:104594006C7F827E8FA39069354F867B697192B35D
:1045A400AF927B798467546C858F7D6A7A85746D4C
:1045B40081919995837D8D9F9A51438196787290CC
:1045C40098A99377737D75727C87968A73708381BB
:1045D40077788B8F7D77869BA4AF8845528C7C5AE5
:1045E4006C7483887A6D808B797389948E8B8074D4
:1045F400706E65849A846E6E8499A39F695490A6A4
:10460400796C7E878A866E6B85866C6C85919785BE
:104614007B8895887E7C797274869C9E9F844F5C8F
:1046240087866A6F7F8F8E8372767C7C756A7B8CBB
:104634009084828F948D8E8979696A798B92836A4A
:104644006A8790726F7E88948A7D8391785B5D74AB
:10465400899C92868B898077726268768498A88D0B
:104664006A6E80796475828997968585907F69687A
:10467400656D80817F8FA3A5A1967D6D737B8983F2
:10468400686C8F9283827F80816F6077918C7C824B
:1046940087807A7B7E7F7C71758681717C939D8B0C
:1046A400655E767E717A7E77858579828F8B7E755D
:1046B4007C8B93857E787A808281818B8D8C909798
:1046C400745B7492887E827B87998D757B7C76720D
:1046D4006F6A7B90897E828D8982786E6C7E8D9CD8
:1046E40096787186876F666873868F7C78828A87EE
:1046F40081746C788584838E929B93816D717E83A3
:10470400847975828C85766F727D887F7980807FCD
:104714008882757378818C8A7F80848484797279A5
:104724007C7D7A7C8490938B83848987837F84893E
:10473400847F7C767373777F817C7E83868A857A97
:10474400737C8382878D838083797375797A7B8286
:10475400837C787A7C797C7D7B79787776767A7EAF
:1047640082888A8A8B8B868682808184807E8184FB
:104774008E8F8A818082817C777D8486827E7C771D
:1047840070737878808B918A848680817A7174873B
:104794008E8684807E82847D716E72757E79737B51
:1047A4008B8A7E82847A797E777A8B8D92A4AA9181
:1047B400706872766F6762708A9D999195988E7908
:1047C4006B6769707175869196988B7B7576808C12
:1047D400795A73958B7F7B74819486727B877F7BF8
:1047E400848A9DA7978890969796887978898B8FE5
:1047F400754D4F6A6654596472787365686D625674
:104804005A5C697B7776878D86888775799CBCAD81
:10481400908E9D9689A69FA0BBCF7253C59E7B7A2E
:104824004A6B746E576B696579405A67584E58667F
:10483400482B48525E656D9EA8795F81796379A0A3
:104844009CACBDD7C5B0BDC6DEE1C0A7A2ABA17804
:104854008FB2B18477848B936F5476858B6B567744
:1048640095A48C776C6969686B55508F87430013E6
:104874004C4A30255C656B4318262B2E181325599A
:104884007874656E6E7C9E948E91AFC8C4968FB01A
:10489400A6827B94B5D1A8788AADBFBDA3BADDD773
:1048A400C5BACDD2C7BCC2C8DAE7DAD2BABEE5F11E
:1048B400D6CFC5D8EDDAAA9CB39C8D8292A1967A04
:1048C400747C62484D585C4B3F522E0000131A060C
:1048D4001A2133311100001018242C323E4A3D4C69
:1048E400544C474B53587B909B79415A7C7E7D971F
:1048F400B8C4BCA0919A9E969DB1C4C7C9B4B8CEA1
:10490400BEC2D1D2CBC7CFC7966280A6A9BDBEA373
:104914009F8D645E60686C7C80858A64585D5F608E
:10492400626867788B957736578E8796B6B5A49F5D
:1049340081749099A3BBCAC3B5A79896A2A6BFD504
:10494400C5B8BCD7BD55468DB0AFAFB19E9F815F92
:10495400758B918A8E84786D5C6E7E7F828574639C
:1049640068826E0700355A524D4539382505041EB4
:10497400333037403E322A334F6667615754699467
:10498400973202679F89817F6B817A56618EA087F7
:104994008D959D9C959FBBC5C4BCB4ACC0E9E68015
:1049A4005DC3F3E3CACDC0D6C39BA7CCD8BEBDA913
:1049B400A8A5969CB7B1A0948B8CA0C0A93B2F8DC1
:1049C400A5805F59576E513C5073736A65565C54A9
:1049D4004A607D6E595E656881965D002778896DB1
:1049E4005C4D576C5557758768645E5C6A787C9F2C
:1049F400AF9B8EA0ADBDD1BE603CACD2C1AFA08D8B
:104A0400A590829FB498888874838D9497AFA1856C
:104A14007C8C8EA19B61145CB5AD94766160705AF8
:104A240070837B5B61515C6A6B6A7971524F626F10
:104A34007F8F610E0A8AA096694C415C63799E8DD2
:104A440073727A729BA0A8ACA58698B3C0C4D5C370
:104A540090387BE8D7B8826C699492BBB28878832B
:104A64007380927E908063618DA4A88D8F6C69376A
:104A740054B8B07A464F4E78767D765A41495B7089
:104A8400786D6851476B93948B74756C5F1D7BC50F
:104A9400906C75808DA390A394857A8387AAADAB1F
:104AA4009691989DA2A5A18E82527FA6B1A27B6306
:104AB400737B86A186655D638396957C777F7C8A0C
:104AC4008E898D6D328CB7A08E6E65787281966EEC
:104AD4005B535673826D6E4C587482716530418B92
:104AE4006F6B7C80767477936455868A7C888A8819
:104AF40087818C7E48599C8D8288948D8899A98F52
:104B04007C8D9CA0A0A19D9FA3B6BFA58CA0A7A0AF
:104B1400A0A6A398A0ABB29B748A9C8C7F6F757F70
:104B24007E7F726B5C526C6B5A546261524E525867
:104B3400514355615449647F6F656169756C728C2A
:104B44007C69727B87939596766D90A299847C7E1E
:104B5400939FA7937D98A4919295999FA2B5B69A95
:104B64008090B3B79A90928C91A894707581857651
:104B74007D6E5B717371625F71677276615B67757D
:104B84007272605A798477726F6578948E776868E8
:104B94007C88857C6C72848485827D756E797F7B4C
:104BA40080807C858481837B797C82847C839C94D3
:104BB40083888D979D9D969395999F9D928D908CBA
:104BC400929C958E8483868F8272736B7A7D726DCC
:104BD4007171757B75747F7C74787A807B74717263
:104BE4006E6864686C6267695F637262565A64686F
:104BF40068766E667A84797C7771829996908C93C4
:104C0400A39AA2B4A49CA3A19EABA8979EA3A2A37B
:104C1400A6A0A99F8D9596928984797B887C7776C6
:104C240073717780615865767D6B636A69787D7985
:104C340066607268677581615C635F5D6866636303
:104C4400636C655F68746B726D7378817881958924
:104C540091958998A19BA5939F9892A09B9E907DE6
:104C640093A89B858C94868F90898A8EA397888E2F
:104C7400898A818C89838889828B9091817F7871DC
:104C8400827F906E717A736C706964786D69616209
:104C9400636D665F5C5F6468665E646A62657170BA
:104CA400746F857E8092838E8A9B8F839298A29A5A
:104CB4009286919CA594877F989D807E8B9A7E97FF
:104CC4009980889393857A8D9DAB94808082A19DF1
:104CD4008F7881888E8177746B646679686F6D5E76
:104CE4006861575D6577685E6B7070797B6A6A741A
:104CF400837F7B797A7C847E77877E8D93947279A7
:104D04009078A6717DA0918A7D79829C838A7D802A
:104D1400919387948279858B9C8E8C839092958CC9
:104D240091A0928284919A8677878D847A7F8C6E03
:104D3400697369735E5A6F75646D666161626958FF
:104D440078816A757F7C80707D746D7B607B8872EE
:104D54007B75737F7582896C7382868B7D8B8EA243
:104D6400968797969086999EA69E8D99AF9C8F8DD7
:104D74008F8798988F9590868696778A8E79768392
:104D84007172725E6D78817855596D9084505F624E
:104D9400848378677A9085706D988D6E7B7C7D872F
:104DA400646F838271787B7F747C827B776C86846A
:104DB40087707C82887C808889937585989189899D
:104DC400ABA782977F9A9E898D897C869594949EC1
:104DD400B5A2AB97B0AA9E939D9969574B35000035
:104DE40000000042626499B2CDDCD2B67A4A3C2417
:104DF4000012281E7095BAE3FFFFE5B86330322D28
:104E04000B3A7289A9A6BAD9AD7870594D424D6052
:104E140082B69A738F746872808B9AB0A3AAC1C742
:104E2400B3AE90766A6B6C90AFAABCB6B39D79832F
:104E34006B4E555B677789898C838274434B483703
:104E440055635846554456777B8A80746D84644F05
:104E54006B72595457718298A390A39F9EA19A9EF6
:104E6400A4A2B9A0B4B6ABB1A3AA8D8B7B737D7C8D
:104E7400769F928A9F7C757376876454707A807D5E
:104E840095817E90848E877085877B797A857A7AFE
:104E940081787D8A888269697C75747370836D6397
:104EA40073818079736574646B7976887C85847585
:104EB40085857F726F8B887A99989DA0909A90824D
:104EC40091A39FA19D94979D99939E9D857A83928A
:104ED400817F8C807D7C7A7F7A7F876B718D8C84D7
:104EE400798B907E6D6F7677857578797275706839
:104EF4006A786D7976747C837C606A6E697F878357
:104F04009194938D918B7B7A5F60757D857D838F82
:104F14008182909091828B7E7E88869695989990D6
:104F240083878190979A8C7C82818D787D847F851C
:104F340089787C8C83837F85888A8E877D746D6F66
:104F44007B7F7A7568686E6E7473715C6982827E29
:104F54006F79786C737B82807B8B907A7D8B919256
:104F6400787785878A847E74869A898C8786897FF8
:104F74007F716C6D7287928C8E93898A988E8F8CD8
:104F84007B7C8881757D7F7D838687887682827C21
:104F94007A767E7C86877476726C7178817B898759
:104FA40082827670716C666A78766D7B73737772C1
:104FB4006D778B9291918A9190808A8A7A717D76AD
:104FC4007280868B858C9896948F8181898F817D60
:104FD4008388948A85898F959C968583837575705B
:104FE4006E7B7E7E807E787B807C706B686E7D803D
:104FF400818680766E71818A80747A787C797A82EF
:105004008388878485867D78707678727880868EAA
:105014008D87827B787E8174757D837F80888D897E
:1050240083817F7C7D81808071788D969C938A8B2F
:105034008C888C92877E77767E7E7E7E7B7D828056
:105044007F81827E7B7C8380797C81807B7E797684
:1050540078777A7C7B7A777B756F727479767171E5
:10506400747B757177818B8D929893867D79837E1D
:1050740079787D818389878A87888D918A8D9294B6
:105084008D8886827F757A7A7A7D898D8C8F8D87DB
:10509400857A7375706F737C85847F7E7B7F78726D
:1050A400767979808582817F7F7B797A7F7F7E772D
:1050B4007882817C7A777A7B787B7D7B7A81868A19
:1050C400848285857D7E837C7E83848B918B88829C
:1050D4007D807F7F82818184858788847F827975C2
:1050E4007C7F858C8A8B96908C85777470706E6EBD
:1050F400787A8387838586837E7E81807E76757ABF
:10510400787A74757D8181807E7D7C74717B7D83EA
:10511400837D7E7A77727A8284838082898A898C7D
:10512400898C8D86827E77787D808186868385864C
:10513400868E8A808287847A76747C7D7E7F81875E
:105144008D8D8A8883837E7C7876777E7E787E7F59
:105154007B767A79797873727A7D7D7C7D7F8083A2
:105164007E75757B7C7D7E80878C88828182797355
:1051740078787F89868589898587868289898481EB
:105184007E80817C7A7B808689898685807F848302
:105194008281797B82838383838388878382837FED
:1051A4007B777573767A7B7B7A84838080777D8244
:1051B4007F7E7D827C777B7E7D7D7D7C8284818009
:1051C400837B7D7E7D7E7F7F7A7D7E7A7D7E8083FC
:1051D4008389888A8583827E7F7D7B7B7C808382B2
:1051E40087878B8A86837C817F7C797D847D7E7DA5
:1051F4007C808584817F808583817F82817C7A79AC
:10520400797473767A7D82847F82827975747A80E8
:10521400807F80848B8C87827F8281817E7A7E7C72
:105224007B7F81818384837F7F7B7A7A7B8487847D
:10523400868783878781807F7E807F828582808145
:105244007F7C82837C797D7F7A7A7B80847D808079
:105254007C8084827C7B7F7E77777A7A7C7D7F8A70
:105264008B888584847F7875787C7B787C80808249
:10527400827C7E838685817D7F807D7B7F81818327
:10528400818181807D7A7D848585898784827F7E02
:105294007C7B7D808182868482838282807E7D7F06
:1052A4007F7C78797B7B787C838182888C848385FE
:1052B400827E7675797B787B878586877B7979781A
:1052C40079787C818084848080817C7F84828487D7
:1052D40084807E7C7E807F7E83817C7F81827F7DD3
:1052E4008484848A837C7E7D7A7D797C84808386B1
:1052F40087878181827D7A797C7C7B7A797C7D7FCA
:105304008284858382807C7C7F7F7D848E81777B91
:105314007876777D8889878A89867C7372747B7BAB
:105324007D80818184878987807E838B8781808B40
:1053340080717381837C7D7F88827F7E787A7578A3
:105344008184898B8B988365626B878E8A867B794F
:105354008CA09B6B6A6B818666737D8B8D8C88A019
:10536400886C587D91777D7B8F7E7B8C8D8F757B50
:105374009675676873797789948678627B9A897F52
:1053840076716D87A3A78F706370778A9076718525
:105394009B9C856C5C6B8C7B726E718FA17D78A0FD
:1053A400B3945A587A938069748F937F707D7F8504
:1053B4008C849177587A9A816C77A6B9814A4A7C11
:1053C4008675748EB1917174807D604F79A9A8A59A
:1053D4008D8896753747779490757AA2B28B655C01
:1053E4007D7B74758D9182786B83817F93A4957F87
:1053F4007B919558275D9992878EA8AF76587172E4
:105404007F89868A928B7863546990A8A9977B7B5D
:10541400838267385F919EA09183838C7562627DDD
:105424008A92898497846C525D7EA9AB8A706E8F50
:10543400A58C495487A7A893797088745A576F9498
:1054440096868C957C6464778FADA67E6B6B8FA6F5
:1054540088414085A7A78C6D799B8053527B99978F
:105464008B7C73706E6F7998B4A688716E859E84F8
:10547400413F84AFB2866679977F444F85B7BB8D31
:10548400646A79766E7E97998C756A758E95804973
:10549400539CB6A16B60809C804F5B8CB5AA734E05
:1054A4005D7B7A7B95AAA48D716F838E865F406F36
:1054B400AAAF90717B878864537494AD936A5F74C8
:1054C40083808692999380778995896C475295ACAD
:1054D4009377787E7968566E8598A38B726B727415
:1054E4007D96A09A857681979271525285AA91727F
:1054F40077867D726973929A8F7A6E6F76787A8ED8
:105504009B9E96828289755A636D80A1957E858C57
:1055140079665C62839B94826968808D8A8F9189A5
:105524008B8F7F5B5A64729AA59C9482685C6670C8
:105534008C998677737A7D8B9390887E8B9A8B6A0D
:10554400575583B4A87D626E776F6E8AA6987C6186
:10555400596A87A0A0968578848A81623F6AACB82C
:105564009A72636A695F7DACAF8D5E425F8A9A9975
:1055740098A399877F705A5A809FA18C716D706E21
:10558400757F8686837C737A90938C8C8A807C78F2
:105594006C6F81898B89807C706B80918175757447
:1055A4007A7E86938C8795845F5764849E958680E3
:1055B4007C7786938D806B606C8192979C907D6BD9
:1055C40077886E778E8B7B6C65768093A89E8669D0
:1055D4005C637D919F91756D7D93927B615F758C0A
:1055E40097958D7F6C72808C887F767875788F8D97
:1055F40083717B9799796C6D7480848886837C85AC
:1056040095987D6E686C728297988B827D7775769B
:105614007E6F726F7A8C8995977E8385767D6A6BAF
:1056240084928877827E7A8B8F867C7D7C635F858B
:1056340092898B8F7D76828B806F7D8D7C717A8B46
:105644009D927F7068778E948B81796F616B7A8F6E
:105654009B86887E7A7B85968380757E7C66767C45
:105664007D7F80968D81838C85746D69756B7E9941
:10567400998D82897B5C6E8D928C867C6E747D960E
:10568400888486767879848E8A7F73737479908B14
:105694008E807D7E747C77848E8280846D70877E1C
:1056A40078787E8D8E8E827078797B85817C8589F1
:1056B4007C8E8B837C6C73757C86858581848F83DB
:1056C40078747A73798481858884877D76867F7FF0
:1056D4008687877A7C82747E7C7D848480888074CB
:1056E400877C7982857F827F7D7877848B80777CC5
:1056F4008388898681717382868681837D8185848E
:105704007D817C707E82818E807A7A7C8779817CAF
:10571400767E888D81787E76727F8387868C817889
:105724007E7874818581818982817E818B7E80816E
:1057340088797C7F72787684868A8D8B7F81807D60
:1057440087747F76798781867E7E7B817A7883757C
:105754007B86817D848B8781727E818189878A7B28
:105764007680858370827E7090878C80768778734C
:10577400827D75878C797E87817B7C7E7679818B2F
:105784007E82747C857F868895797E8677787F8310
:10579400787486888590877B797777787C87898207
:1057A4007C83857D8986827E768B857E7F7F7672FB
:1057B400848D7C758475777F867B757B827E8987F3
:1057C400827F6F847E8B83847D778C7B7F7A7887DE
:1057D4008087807C838087867A7588878476827EBA
:1057E4007C888685798275758384797C79858383C1
:1057F4008A7C8785757F8071827A7F837D7D8185B0
:105804008477778D7A748787787A828981808F7E8E
:1058140072808080757F898E837A86767D7F7D8392
:105824007A7B917E81877C78788883807C7D7D7D7E
:105834007E887B70818A85837D857A788785878356
:105844007F7E79798B7E727786887F7E8785807E5E
:105854007B74737F848F8184847E837E888477784D
:105864007F7A868E75767D78888385807683837447
:105874007B8C7B7A7B838F807F7A7A817A88887627
:1058840088817E89757F7F73808287867F7A767C24
:105894008C827C878087817B817D807D7A7E8288F3
:1058A400867076857582858683888479807D8886EE
:1058B40087878C8C93858D9D8C93818086817D7761
:1058C4006872726A645867615B6260667C6C6B7054
:1058D400707370716C7A797675847D8C908394C7BB
:1058E400AB6AB9BAA6AD939B808682867C43736407
:1058F40055543C523A3C563E3F36485343515C76ED
:1059040078818C778096819195B5B7ABAAB1B5B9FA
:10591400BEA9B0A7B9ABACA0ACA89C9D9A93889043
:10592400878478796B73808E948E887754556469F4
:105934006049464E4E56625B4B4459536251575030
:105944004D67647474726E80827E7C75707A827F17
:1059540083807D797F83888380927C7E8F909D95E0
:1059640099A19D9496A6A19CA3A8A99FAAADA2A023
:10597400ACADB0AAA6B1ACB0B7BCAEA9B4AFA7AC3D
:10598400B3AE9FA2AD9A9FAB909C94949687879058
:105994007F7688757067685C594F5D564A4A474CF4
:1059A4004A534A463E453E4143423C333D55504AA4
:1059B4004C4F5348555E554A4D5155525A5B5451BC
:1059C40056656E686A6D7B7E8B8A8BA39A9DA4ADA7
:1059D400AFB2B2B9BCBFC8C6C2BCC2CACBCCC2BFCC
:1059E400BCC5C0B6BEB3B3A3A5BBB8ACAAB1B8B569
:1059F400B6BCB2A2A7AFA699A2A19A978DA19B9279
:105A04008A8B7F7B806B6B6B6C6B635D6B655B619F
:105A14005552565B584F546068615D5B55565252FF
:105A2400585C5B51495A6B63606E75747A7E736619
:105A34006B7B736B716B6D65616B6C646A706771A2
:105A44007370747471827C768287918C877B888D65
:105A5400807D7C808987827C7678757B82807E7865
:105A640074808891909492929D9F9A8E8E98928D34
:105A7400928E98928F99989C9B989A9CA4A2A39C8E
:105A840098A2989B9D999DA0909191968E909B90A1
:105A9400959B9984828B88868581837673797676C3
:105AA4007B7D7B7981857C7A7A796E6E6A656C6A96
:105AB40066655D5A5A55585B58595E5D5C5C5A5D23
:105AC400615D6F7369686D77757E7C7C78838A7B92
