:020000040800F2
:1000000000000120C5020008CB020008CF02000852
:1000100041030008450300088D03000800000000AC
:10002000000000000000000000000000D5030008F0
:10003000D903000800000000DD030008991500083E
:10004000F1030008F1030008F1030008F1030008C0
:10005000F1030008F1030008F1030008F1030008B0
:10006000F1030008F1030008F1030008F1030008A0
:10007000F1030008F1030008F1030008F103000890
:10008000F1030008F1030008F1030008000000007C
:10009000000000000000000000000000F103000864
:1000A000F1030008F1030008F1030008F103000860
:1000B000F1030008F1030008F1030008F103000850
:1000C000F1030008F1030008F10300081915000806
:1000D000F1030008BD150008F1030008000000004E
:1000E000F1030008F1030008F1030008000000001C
:1000F000000000000000000000000000F103000804
:1001000000000000F1030008F1030008F1030008FB
:1001100000000000000000000000000000000000DF
:100120003D110008F1030008F1030008F103000885
:10013000F1030008000000000000000000000000C3
:10014000000000000000000000000000F1030008B3
:10015000F1030008F1030008F1030008F1030008AF
:10016000F1030008F1030008000000000000000097
:10017000000000000000000000000000000000007F
:1001800000000000F1030008000000000000000073
:10019000F103000800B583B000F046FE384B394A41
:1001A0001360394A1360394900E02146384B9942BF
:1001B0000BD20A684B6801F10C0488689842F4D9A4
:1001C0001168196004330432F8E72E4B1A68314B7A
:1001D0009A4200D0FEE72C4B1A682F4B9A42F9D175
:1001E000274B2E4A13602E4A13602E4B05E0002049
:1001F000106004329342FAD80B462B4A934204D241
:10020000194651F8082B5B68F4E7244B1B6813B9B7
:10021000234B1B6803B1FEE701F024FA694601A8ED
:1002200000F094FD214C224BE41AA4100025AC42AE
:1002300014DC204C204BE41AA4100025AC4213DC43
:100240000099019801F016FA05461C4C1C4BE41A63
:10025000A410002C0EDC284600F04AFD144B53F885
:10026000253098470135E2E7134B53F8253098477E
:100270000135E3E7013C124B53F824309847E8E797
:10028000BABADECA0000002074000020F40300089F
:100290000C04000878563412325476987800002006
:1002A000240100200C0400081C0400081C040008A1
:1002B0001C0400081C0400081C0400081C0400089E
:1002C0001C04000808B5FFF765FF00BEFEE71EF03E
:1002D000040F0CBFEFF30880EFF309807146414A29
:1002E00010472DE9F04182B004468846124B5E6B00
:1002F0009F6B9D6A1B6B13F0020F03D00E4BDB6AE2
:10030000002B0CDB0D4800F033FDCDF800803B46A0
:1003100032462946204600F093FD00BEFEE74BF62C
:10032000AB6100F007FE0028ECD0034B4FF0004219
:10033000DA6202B0BDE8F08100ED00E0C8210008FB
:1003400000BEFEE71EF0040F0CBFEFF30880EFF3D2
:1003500009807146244A10472DE9F04182B00446D5
:100360008846084B5E6B9F6B9D6A074800F000FD56
:10037000CDF800803B4632462946204600F060FD1D
:1003800000BEFEE700ED00E0D82100081EF0040FDB
:100390000CBFEFF30880EFF309807146134A104752
:1003A0002DE9F04182B004468846084B5E6B9F6B96
:1003B0009D6A074800F0DCFCCDF800803B463246E1
:1003C0002946204600F03CFD00BEFEE700ED00E0BF
:1003D000E421000800BEFEE700BEFEE700BEFEE727
:1003E00070470000E302000859030008A103000859
:0403F00000BEFEE766
:1003F40038BA0008000000207800002038BA00084D
:1004040000000010000000107800002028010020E7
:080414000000001000000010C0
:1004200010B50446074B1868074BA3FB0030800942
:1004300000F090F8002221464FF0FF3000F044F821
:10044000002010BD0C000020D34D621008B50B4BEE
:100450001A6842F400721A601A6842F480621A60E4
:100460001A6842F480721A60032000F00FF80F201F
:10047000FFF7D6FF01F03CF9002008BD003C024028
:10048000014B1868704700BF1C01002010B50446DE
:10049000C31E042B0FD80A4AD36823F4E0631B045D
:1004A0001B0C240204F4E064234343F0BF6343F4D1
:1004B0000033D36010BDA421024800F04FFCEAE7EE
:1004C00000ED00E0F81F000870B505460C46164622
:1004D0000F2A25D80F2C28D81B4BDB68C3F3022327
:1004E000C3F10702042A28BF0422191D062921D9B5
:1004F000033B4FF0FF3101FA02F224EA02049C4070
:1005000001FA03F326EA03063443002D14DB240129
:10051000E4B205F1604505F5614585F8004370BD1D
:10052000BC210A4800F01AFCD4E7BD21074800F0BE
:1005300015FCD1E70023DCE705F00F052401E4B248
:10054000034B5C55EBE700BF00ED00E0F81F00082F
:1005500014ED00E00138B0F1807F0AD2064B5860FC
:10056000064AF02182F823100020986007221A60C2
:1005700070470120704700BF10E000E000ED00E090
:1005800010B50446042800D038B9042C0BD0094A11
:10059000136823F00403136010BD40F2B311064842
:1005A00000F0DCFBF1E7034A136843F00403136037
:1005B000F2E700BF10E000E0F81F000830B583B09C
:1005C000044603680F2B29D8236813F0010F3DD090
:1005D0006368012B01D9052B25D1A34B9B6803F040
:1005E0000C03042B29D0A04B9B6803F00C03082BB1
:1005F0001ED022799D4B1A706368002B50D0FFF7F4
:100600003FFF0546984B1B6813F4003F1ED1FFF7D0
:1006100037FF401B6428F5D90320E3E1F521944816
:1006200000F09CFBD0E7FA21914800F097FBD4E75B
:100630008D4B5B6813F4800FDBD08B4B1B6813F47E
:10064000003F03D06368002B00F0C981236813F0DA
:10065000020F5DD0E368012B31D823691F2B34D8FA
:10066000814B9B6813F00C0F3AD07F4B9B6803F0D3
:100670000C03082B2FD0E368002B74D07D4B012294
:100680001A60FFF7FDFE0546774B1B6813F0020F5B
:100690005AD1FFF7F5FE401B0228F5D90320A1E14E
:1006A000FFF7EEFE0546704B1B6813F4003FCDD0FC
:1006B000FFF7E6FE401B6428F5D9032092E14FF4D2
:1006C00096716B4800F04AFBC7E740F22D1168486D
:1006D00000F044FBC4E7644B5B6813F4800FCAD19D
:1006E000614B1B6813F0020F04D0E368012B01D0AB
:1006F000012077E15C48036823F0F8032169F822C0
:1007000092FAA2F2B2FA82F201FA02F21343036001
:10071000236813F0080F50D06369012B35D8636943
:10072000002B38D0544B01221A60FFF7A9FE054672
:100730004D4B5B6F13F0020F3FD1FFF7A1FE401B43
:100740000228F5D903204DE14748036823F0F80358
:100750002169F82292FAA2F2B2FA82F201FA02F2C6
:1007600013430360D4E7434B00221A60FFF788FE6F
:1007700005463D4B1B6813F0020FC9D0FFF780FE02
:10078000401B0228F5D903202CE140F26D113848B6
:1007900000F0E4FAC3E7384B00221A60FFF770FE5E
:1007A0000546314B5B6F13F0020F06D0FFF768FE72
:1007B000401B0228F5D9032014E1236813F0040F2D
:1007C00060D0A368012B01D9052B1FD10023019311
:1007D000254B1A6C42F080521A641B6C03F0805354
:1007E0000193019B254A136843F480731360FFF75C
:1007F00047FE0546214B1B6813F4807F0CD1FFF7A1
:100800003FFE401B0228F5D90320EBE040F2971190
:10081000174800F0A3FAD9E7227A194B1A70A36897
:1008200083B1FFF72DFE05460F4B1B6F13F0020F30
:1008300028D1FFF725FE401B41F288339842F3D9B7
:100840000320CFE0FFF71CFE0546074B1B6F13F09C
:10085000020F17D0FFF714FE401B41F28833984275
:10086000F3D90320BEE000BF003802400238024046
:100870003C20000800004742800E474200700040C4
:1008800070380240A369022B39D8A369002B00F00D
:10089000A880564A926802F00C02082A00F0A48050
:1008A000022B40F08880E36913B1B3F5800F2CD19F
:1008B000236A3F2B2FD8636A323BB3F5BF7F30D812
:1008C000A36A022B05D0042B03D0062B01D0082BE2
:1008D0002DD1E36A043B0B2B2FD8454B00221A6025
:1008E000FFF7CEFD0546414B1B6813F0007F2AD071
:1008F000FFF7C6FD401B0228F5D9032072E04FF434
:10090000E6713C4800F02AFABFE740F2D5113948B9
:1009100000F024FACCE74FF4EB71364800F01EFAF1
:10092000C9E740F2D711334800F018FAC8E74FF48E
:10093000EC71304800F012FACBE740F2D9112D48A3
:1009400000F00CFAC9E7E369226A1343616A47F6CB
:10095000C07292FAA2F2B2FA82F201FA02F21343E0
:10096000A26A5208013A4FF4403191FAA1F1B1FA6A
:1009700081F18A401343E16A4FF0706292FAA2F269
:10098000B2FA82F201FA02F21343184A5360184B8A
:1009900001221A60FFF774FD0446144B1B6813F024
:1009A000007F06D1FFF76CFD001B0228F5D903205C
:1009B00018E0002016E00E4B00221A60FFF760FDE1
:1009C00004460A4B1B6813F0007F06D0FFF758FD62
:1009D000001B0228F5D9032004E0002002E00120DA
:1009E00000E0002003B030BD0120FBE700380240EA
:1009F000600047423C200008214B9B6803F00C0339
:100A0000042B3AD0082B01D01E4870471C4B586865
:100A100000F03F005B6813F4800F1ED01A4AB2FB4F
:100A2000F0F2174B586847F6C073184093FAA3F3D7
:100A3000B3FA83F3D84000FB02F0114B5B6803F478
:100A400040334FF4403292FAA2F2B2FA82F2D3402B
:100A500001335B00B0FBF3F070470A4AB2FBF0F2DF
:100A6000074B586847F6C073184093FAA3F3B3FADC
:100A700083F3D84000FB02F0DFE70348704700BF74
:100A8000003802400024F40040787D0170B504462F
:100A90000D460368013B0E2B11D8072D15D88C4B42
:100AA0001B6803F00F03AB4215D2EBB2884A1370F8
:100AB000136803F00F03AB420DD0012070BD40F26C
:100AC0003721844800F04AF9E7E74FF40E71814876
:100AD00000F044F9E3E7236813F0020F18D0A3688D
:100AE0007BB1802B0DD0902B0BD0A02B09D0B02B3D
:100AF00007D0C02B05D0D02B03D0E02B01D0F02B9A
:100B000037D1754A936823F0F003A1680B439360D3
:100B1000236813F0010F73D06368032B2FD8636829
:100B2000012B32D09A1E012A36D96B4A126812F074
:100B3000020F00F0CA8068498A6822F0030213435A
:100B40008B60FFF79DFC06466368012B2BD0022BC0
:100B500038D0032B45D0604B9B6813F00C0F4FD05F
:100B6000FFF78EFC801B41F288339842F3D90320B3
:100B7000A4E740F24F21574800F0F0F8C1E740F2F7
:100B80005621544800F0EAF8C9E7534A126812F4B3
:100B9000003FD0D1012091E74F4A126812F0007F48
:100BA000C9D101208AE74C4B9B6803F00C03042B4E
:100BB00026D0FFF765FC801B41F288339842F2D9BA
:100BC00003207BE7444B9B6803F00C03082B17D0F2
:100BD000FFF756FC801B41F288339842F2D903207C
:100BE0006CE73D4B9B6803F00C030C2B08D0FFF720
:100BF00047FC801B41F288339842F2D903205DE71D
:100C0000334B1B6803F00F03AB4209D9EAB2304BF8
:100C10001A701B6803F00F03AB4201D001204DE7AF
:100C2000236813F0040F14D0E3685BB1B3F5805F61
:100C300008D0B3F5A05F05D0B3F5C05F02D0B3F51F
:100C4000E05F36D1244A936823F4E053E1680B4314
:100C50009360236813F0080F15D023695BB1B3F5D7
:100C6000805F08D0B3F5A05F05D0B3F5C05F02D0B8
:100C7000B3F5E05F23D1184A936823F460432169F8
:100C800043EAC1039360FFF7B7FE134B9B6803F081
:100C9000F003F02292FAA2F2B2FA82F2D3400F4AA3
:100CA000D35CD8400E4B18600F20FFF7B9FB002033
:100CB00004E74FF42D71074800F050F8C2E740F206
:100CC000BB21044800F04AF8D5E70120F6E600BF52
:100CD000003C02403C200008003802402C20000864
:100CE0000C000020014B1868704700BF0C0000206A
:100CF000FEE7000008B5034800F052F80120FFF7B6
:100D0000F7FF00BF6C20000808B503460C4A1268C4
:100D10005AB10B4A1068033323F003030344094A12
:100D2000934206D8064A136008BD054A0649116079
:100D3000EFE700F0DFFC0C2303604FF0FF30F3E738
:100D40007C00002000FC002028010020012303601B
:100D5000014B0B60704700BF0400002008B50A4635
:100D60000146024800F004F8FFF7C4FF80200008A5
:100D70000FB400B583B004AB53F8042B019380216A
:100D8000064800F0F1FC002803DD0146034800F0AE
:100D900047F803B05DF804EB04B07047840000200E
:100DA00010B5044600F0ACFC0146204600F038F8CF
:100DB0000121024800F034F810BD00BF44210008B2
:100DC0002DE9F04385B004460F4643560BB10E465D
:100DD0001EE0042528462146ABBE0446384605B031
:100DE000BDE8F08314F9011B04AA1A4402F8101C90
:100DF0000133AB42F6D304AA1344002203F8102CAB
:100E00004FF00408E94640464946ABBE8046761B93
:100E1000002EE3D03546102E28BF10250023E8E72A
:100E200008B5FFF7CDFF08BD08B500F093F8024AFA
:100E3000024B9A6008BD00BF0000000800ED00E012
:100E4000F8B504460D4617461E462748FFF790FFA3
:100E500021682648FFF78CFF61682548FFF788FF67
:100E6000A1682448FFF784FFE1682348FFF780FF6B
:100E700021692248FFF77CFF61692148FFF778FF6D
:100E8000A1692048FFF774FFE1691F48FFF770FF71
:100E90001E48FFF76DFF29461D48FFF769FF1D4CEF
:100EA000E16A1D48FFF764FF216B1C48FFF760FFF4
:100EB000E16B1B48FFF75CFF15F0800F0AD115F4BA
:100EC000004F0CD11748FFF753FF06991648FFF75C
:100ED0004FFFF8BD39461548FFF74AFFEFE73146A7
:100EE0001348FFF745FFEDE7AC200008BC200008E1
:100EF000CC200008DC200008EC200008FC200008C2
:100F00000C2100081C2100082C2100083C210008AD
:100F10004821000800ED00E0582100086821000881
:100F200078210008A8210008B021000888210008C5
:100F30009821000883691A888A4201D000207047EE
:100F40000268033A012A03D8023383610120704703
:100F5000002070470C4B1A6842F001021A60002111
:100F600099601A6822F0847222F480321A60074A6B
:100F70005A601A6822F480221A60D960044B4FF03C
:100F800000629A60704700BF0038024010300024B1
:100F900000ED00E0224B9B6803F00C03042B14D0FF
:100FA000082B16D01BB11F4B1F4A1A6002E01D4BC5
:100FB0001D4A1A601A4B9B68C3F303131B4AD15C8A
:100FC000184A1368CB4013607047164B184A1A60D2
:100FD000F0E7134B5A685B6803F03F0312F4800F8D
:100FE00013D0134AB2FBF3F20D4B5B68C3F38813C3
:100FF00003FB02F30A4A5268C2F301420132520073
:10100000B3FBF2F3074A1360D4E7074AB2FBF3F2EB
:10101000034B5B68C3F3881303FB02F3EAE700BFEB
:10102000003802400C0000200024F400F4210008E5
:1010300040787D0110B5044601220221002000F015
:1010400039F9204600F04EFA10BD10B504460022D2
:101050000221104600F02EF9204600F043FA10BDA0
:1010600008B501221146002000F024F9642000F0A8
:1010700081FA00220121104600F01CF9012000F045
:1010800079FA01221146002000F014F9642000F0E2
:1010900071FA00220121104600F00CF9642000F0E2
:1010A00069FA01221146002000F004F9782000F0CE
:1010B00061FA1120FFF7C9FF962000F05BFA3A2091
:1010C000FFF7C3FF0520FFF7B5FF2920FFF7BDFF9E
:1010D00008BD38B505462A20FFF7B7FF0020FFF707
:1010E000A9FF0020FFF7A6FF0020FFF7A3FF7F2046
:1010F000FFF7A0FF2B20FFF7A8FF0020FFF79AFFC4
:101100000020FFF797FF0020FFF794FF9F20FFF7D5
:1011100091FF2C20FFF799FF00240AE035F8140016
:10112000000AFFF787FF15F81400FFF783FF01346B
:10113000A4B2B4F5A04FF1D338BD000008B5024BFE
:101140001B68984708BD00BF0401002005282DD862
:10115000DFE800F0030A11181F261548036849004C
:101160008A401A43026070471248036849008A4067
:101170001A43026070471048036849008A401A43C6
:10118000026070470D48036849008A401A430260B4
:1011900070470B48036849008A401A430260704751
:1011A0000848036849008A401A430260704700BF3C
:1011B000000002400004024000080240000C02400F
:1011C00000100240001C0240052827D8DFE800F08C
:1011D00003090F151B21124843688A401A434260D5
:1011E0007047104843688A401A43426070470E486F
:1011F00043688A401A43426070470C4843688A40FB
:101200001A43426070470A4843688A401A43426062
:101210007047084843688A401A434260704700BFDD
:10122000000002400004024000080240000C02409E
:1012300000100240001C024005282DD8DFE800F015
:10124000030A11181F261548836849008A401A436B
:10125000826070471248836849008A401A4382605E
:1012600070471048836849008A401A43826070477B
:101270000D48836849008A401A43826070470B48D2
:10128000836849008A401A4382607047084883682F
:1012900049008A401A438260704700BF0000024044
:1012A0000004024000080240000C0240001002400E
:1012B000001C0240012A06D0052870D8DFE800F0A3
:1012C0003A434C555E67052869D8DFE800F0030B08
:1012D000131B232B32484369012202FA01F11943FF
:1012E000416170472F484369012202FA01F1194315
:1012F000416170472C484369012202FA01F1194308
:101300004161704729484369012202FA01F11943FA
:101310004161704726484369012202FA01F11943ED
:101320004161704723484369012202FA01F11943E0
:10133000416170471A484369012202FA01F123EA28
:1013400001014161704717484369012202FA01F126
:1013500023EA01014161704713484369012202FAFF
:1013600001F123EA010141617047104843690122FC
:1013700002FA01F123EA0101416170470C48436917
:10138000012202FA01F123EA010141617047094893
:101390004369012202FA01F123EA01014161704728
:1013A000000002400004024000080240000C02401D
:1013B00000100240001C024007291DD801280BD054
:1013C00010B1022810D070471E48036A890002FA43
:1013D00001F11943016270471B48036A890002FA50
:1013E00001F11943016270471848036A890002FA43
:1013F00001F119430162704710B401280ED018B1F1
:10140000022815D010BC70470E4C606A01F007032B
:101410009B0002FA03F101436162F3E70A4C606A40
:1014200001F007039B0002FA03F101436162E9E75F
:101430000648436A01F00701890002FA01F11943E5
:101440004162DFE700000240000402400008024061
:10145000032822D8DFE800F0020A121A0F480368B6
:10146000012202FA01F11943016070470C48036838
:10147000012202FA01F1194301607047094803682B
:10148000012202FA01F1194301607047064803681E
:10149000012202FA01F1194301607047303802401D
:1014A000343802404038024044380240074A13684A
:1014B00043F001031360064B1A6822F001021A6020
:1014C0001A6822F002021A60704700BF003802401A
:1014D00008380240024B40F247321A60704700BFA2
:1014E0000030014010B50446002211461046FFF7B7
:1014F000E1FE084BDC60074B9B6813F0800FFAD1CC
:10150000012200210846FFF7D5FE024BD868C0B281
:1015100010BD00BF0030014008B5024B1B68984762
:1015200008BD00BF08010020014B00221A6070476F
:1015300010E000E0044B586000229A601A6842F004
:1015400001021A60704700BF10E000E0024B18680B
:10155000C0F30040704700BF10E000E0044B1A6881
:1015600022F002021A601A6842EA400018607047CE
:1015700010E000E010B50446FFF7D6FF0020FFF7AB
:10158000EDFF4FF4FA6000FB04F0FFF7D3FFFFF725
:10159000DDFF0028FBD010BD00B583B000238DF81F
:1015A0000730054B1B689847FFF7D0FF8DF8070001
:1015B00003B05DF804FB00BF0C01002008B5024B2E
:1015C0001B68984708BD00BF1001002070B594B09B
:1015D00000240194204B1A6C42F080521A641B6C58
:1015E00003F080530193019B02941C4B1A6842F450
:1015F00040421A601B6803F440430293029B01239C
:10160000089309934FF480030F93192310934FF419
:10161000A8731193042612960723139302250E959F
:1016200008A8FEF7CBFF0F230393049505944FF40E
:10163000805306930794294603A8FFF727FAFFF77C
:1016400051FB074BA3FB00308009FEF783FF3046B8
:10165000FEF796FF14B070BD0038024000700040E5
:10166000D34D621008B5FEF7F1FEFFF7AFFFFFF7AD
:1016700091FC08BD10B5FFF719FF00210846FFF7E0
:10168000E7FE0C210320FFF7E3FE002410E0012217
:1016900021460020FFF75AFD012221460020FFF7D6
:1016A000CBFD002221461046FFF78EFD0134E4B247
:1016B000022CECD9022205210020FFF747FD02226F
:1016C00007210020FFF742FD052211460020FFF709
:1016D00073FE052207210020FFF76EFEFFF7FAFEDA
:1016E000FFF7BEFC0148FFF7F4FCFEE70422000808
:1016F00070470000014B1868704700BF10000020C1
:10170000034613F8012B002AFBD1181A0138704741
:1017100030B5141E05469BB0184605DA8B232B60A6
:101720004FF0FF301BB030BD4FF40273ADF80C30FA
:1017300014BF04F1FF332346029305934FF6FF7362
:1017400000910491ADF80E3002461E9B6946284672
:1017500000F072F8431CBCBF8B232B60002CE1D03F
:10176000009B00221A70DDE707B5009313460A4676
:10177000014603480068FFF7CBFF03B05DF804FBA8
:10178000100000202DE9F0478E689E4282460C46EC
:101790009046994637D88A8912F4906F31D02568DF
:1017A00009696F1A6569022305EB450595FBF3F599
:1017B00009F101033B449D4238BF1D46530530D516
:1017C000294600F07FFB064650B90C23CAF80030CA
:1017D000A38943F04003A3814FF0FF30BDE8F087B9
:1017E0003A46216900F0FCFAA38923F4906343F0A0
:1017F0008003A381266165613E44ED1B2660A560E0
:101800004E464E4500D94E4632464146206800F0CD
:10181000F2FAA3689B1BA36023681E442660002085
:10182000DCE72A4600F0A8FB06460028E2D1216941
:10183000504600F0F9FAC8E72DE9F04F9DB0804618
:1018400003938B891D060C4616460FD50B696BB9A1
:10185000402100F037FB2060206128B90C23C8F834
:1018600000304FF0FF30C7E040236361002309934D
:1018700020238DF8293030238DF82A304FF0010BCA
:1018800037463D4615F8013B0BB1252B3ED1B7EB52
:10189000060A0BD05346324621464046FFF772FFF8
:1018A000013000F0A480099B534409933B78002B3E
:1018B00000F09D8000234FF0FF32CDE90523049313
:1018C00007938DF853301A932F46052217F8011B02
:1018D0004F4800F035FA049BD0B9D90644BF202206
:1018E0008DF853201A0744BF2B228DF853202A78F5
:1018F0002A2A15D0079A2F4600200A25394611F8C2
:10190000013B303B092B4DD9B8B10FE02F46B8E76A
:101910003F4A801A0BFA00F0184304903D46D3E783
:10192000039A111D12680391002A01DB079204E05B
:10193000524243F00203079204933B782E2B0CD1C2
:101940007B782A2B33D1039B1A1D1B680392002B33
:10195000B8BF4FF0FF33023705932E4D397803227D
:10196000284600F0EDF938B14023401B03FA00F09F
:10197000049B034301370493397827488DF82810D6
:1019800006227E1C00F0DCF9002838D0234B13BB64
:10199000039B073323F0070308330393099B4B444E
:1019A00009936DE705FB023201200F46A6E70023ED
:1019B0000137059319460A25384610F8012B303AAD
:1019C000092A03D9002BC8D00591C6E705FB0121E0
:1019D00001230746F0E703AB00932246104B04A90E
:1019E0004046AFF30080B0F1FF3F8146D6D1A389D6
:1019F0005B063FF536AF09981DB0BDE8F08F03AB2D
:101A000000932246064B04A9404600F081F8EAE71D
:101A100004BA00080ABA00080EBA00080000000064
:101A2000851700082DE9F04791461F468A680B6923
:101A3000DDF820809342B8BF1346C9F8003091F812
:101A4000432006460C4612B10133C9F80030236822
:101A5000990642BFD9F800300233C9F80030256832
:101A600015F0060507D104F1190AE368D9F800203A
:101A70009B1AAB4228DC94F843302268003318BF2D
:101A8000012392062DD404F1430239463046C04763
:101A9000013020D02368E568D9F8002003F0060360
:101AA000042B08BFAD1AA36822690CBF25EAE575AF
:101AB00000259342C4BF9B1AED184FF000091A3459
:101AC0004D451AD1002008E00123524639463046E0
:101AD000C047013003D14FF0FF30BDE8F08701353A
:101AE000C3E7E1185A1C302081F84300224494F8DF
:101AF000451082F843100233C5E7012322463946D8
:101B00003046C0470130E6D009F10109D8E70000AE
:101B10002DE9F04301F1430C0C46097E85B06E2996
:101B20001746064698460C9A00F0B38022D86329DF
:101B300036D00AD8002900F0B980582900F08380F7
:101B400004F1420584F8421032E0642901D0692989
:101B5000F6D120681368050603F104012AD51B6835
:101B60001160002B03DA2D225B4284F843206F487A
:101B70000A2239E0732900F09D8008D86F2920D00F
:101B80007029DDD1236843F02003236003E0752929
:101B900017D07829D4D1782384F84530644855E0AB
:101BA0001368191D1B68116004F1420584F8423066
:101BB00001238CE01B68116010F0400F18BF1BB2AE
:101BC000CFE713682568181D1060280601D51B682B
:101BD00002E06806FBD51B8854486F2914BF0A220F
:101BE0000822002184F843106568A560002DC0F22A
:101BF0009580216821F004012160002B3DD1002D4A
:101C000040F08E806546082A0BD12368DB0708D593
:101C1000236962689A42DEBF302305F8013C05F172
:101C2000FF35ACEB05032361CDF800803B4603AAEA
:101C300021463046FFF7F6FE01304DD14FF0FF3020
:101C400005B0BDE8F083394884F845101368216871
:101C50001D1D1B6815600A060BD5CA0744BF41F05D
:101C6000200121601BB9226822F02002226010228C
:101C7000B7E74D0648BF9BB2EFE76546B3FBF2F10D
:101C800002FB1133C35C05F8013D0B460029F5D179
:101C9000B9E7136825686169181D106028061B687C
:101CA00001D5196002E06A06FBD519800023236183
:101CB0006546B9E71368191D11601D686268002147
:101CC000284600F03DF808B1401B6060636823615E
:101CD000002384F84330A7E723692A463946304673
:101CE000C0470130AAD023689B0713D4E068039B48
:101CF0009842B8BF1846A3E701234A463946304602
:101D0000C04701309AD00135E368039A9B1AAB4271
:101D1000F2DCEBE7002504F11909F5E7002BACD163
:101D2000037884F8423004F142056CE715BA0008E4
:101D300026BA0008000000000000000000000000BB
:101D400001F0FF01102A2BDB10F0070F08D010F86C
:101D5000013B013A8B422DD010F0070F42B3F6D170
:101D6000F0B441EA012141EA014122F007047FF089
:101D700000070023F0E80256083C85EA010586EAE0
:101D8000010685FA47F5A3FA87F586FA47F6A5FA1C
:101D900087F68EB9EED1F0BC01F0FF0102F0070228
:101DA00032B110F8013B013A83EA010313B1F8D1D3
:101DB0000020704701387047002D06BF35460338B4
:101DC000073815F0010F07D1013015F4807F02BFED
:101DD000013015F4C03F0130F0BC0138704700BF3E
:101DE00010B5431E0A44914200D110BD11F8014BB9
:101DF00003F8014FF7E7884210B501EB020307D85B
:101E0000421E99420AD011F8014B02F8014FF8E73F
:101E10008342F5D98118D21AD34200D110BD13F8EC
:101E2000014D01F8014DF7E738B50546002945D0C9
:101E300051F8043C0C1F002BB8BFE41800F0D2F896
:101E40001F4A1368104633B9636014602846BDE822
:101E5000384000F0C8B8A3420CD9216862189342F8
:101E600004BF1A685B68636004BF52182260046094
:101E7000ECE713465A680AB1A242FAD91968581811
:101E8000A0420BD120680144581882421960DDD16C
:101E9000106852685A6001441960D7E702D90C23D0
:101EA0002B60D3E7206821188A4204BF116852686A
:101EB000626004BF091821605C60C7E738BD00BFDD
:101EC0001401002070B5CD1C25F0030508350C2D3C
:101ED00038BF0C25002D064601DBA94203D90C238F
:101EE0003360002070BD00F07DF8214A146821465F
:101EF00091B9204C23681BB9304600F063F820608C
:101F00002946304600F05EF8431C24D10C23336090
:101F1000304600F068F8E4E70B685B1B18D40B2B25
:101F20000FD90B60CD50CC18304600F05CF804F1AE
:101F30000B00231D20F00700C31AD3D05A42E250F1
:101F4000D0E78C424B6816BF636013600C46EBE72A
:101F50000C464968CCE7C41C24F00304A04205D019
:101F6000211A304600F02EF80130CFD02560DBE793
:101F70001401002018010020F8B5074614460E464B
:101F800021B91146BDE8F840FFF79CBF22B9FFF721
:101F90004BFF25462846F8BD00F026F8A0420FD298
:101FA00021463846FFF78EFF05460028F2D031461D
:101FB0002246FFF715FF31463846FFF735FFE9E7C0
:101FC0003546E7E738B5064C00230546084623604A
:101FD000FEF79AFE431C02D1236803B12B6038BD83
:101FE000200100207047704751F8043C181F002B57
:101FF000BCBF0B58C01870472E2E2F7379737465B1
:102000006D2F7372632F73746D333266342D686174
:102010006C2F73746D3332663478785F68616C5FEF
:10202000636F727465782E6300000000000000008A
:102030000102030401020304060708092E2E2F7370
:10204000797374656D2F7372632F73746D33326699
:10205000342D68616C2F73746D3332663478785F19
:1020600068616C5F7263632E6300000061626F726F
:102070007428292C2065786974696E672E2E2E00CD
:102080006173736572745F706172616D2829206677
:1020900061696C65643A2066696C6520222573224B
:1020A0002C206C696E652025640A000053746163FE
:1020B0006B206672616D653A0A0000002052302084
:1020C0003D2020253038580A0000000020523120E1
:1020D0003D2020253038580A0000000020523220D0
:1020E0003D2020253038580A0000000020523320BF
:1020F0003D2020253038580A00000000205231329F
:10210000203D20253038580A00000000204C522085
:102110003D2020253038580A000000002050432080
:102120003D2020253038580A00000000205053522E
:10213000203D20253038580A000000004653522F19
:102140004641523A0A0000002043465352203D20A7
:1021500020253038580A00002048465352203D20A0
:1021600020253038580A00002044465352203D2094
:1021700020253038580A00002041465352203D2087
:1021800020253038580A0000204D4D464152203D50
:1021900020253038580A00002042464152203D2078
:1021A00020253038580A00004D6973630A0000008A
:1021B000204C522F4558435F52455455524E3D20B6
:1021C000253038580A0000005B486172644661752A
:1021D0006C745D0A000000005B4275734661756CAB
:1021E000745D0A005B55736167654661756C745D6B
:1021F0000A000000000000000000000001020304CB
:1022000006070809FFE7FAF5E998A760C831549D69
:1022100038F6F2F472ED92CD73D5F1DC31D570D58C
:102220000FD5D0ECF0CCD0CCB0D4B0CC90C46FC42F
:102230000EC4EDC3ECBBEBABABA36BAB0BA30B9B27
:102240000A7BC431042162086108C3188210F39C20
:10225000BEF7108475B5EE8390942008A539DADEB8
:10226000FADEA952B394528CB7B5728C6308C410CD
:10227000E51805192619061926190519C410C410E0
:10228000E518E518E618E618A510E618E618261968
:10229000E618C51006190619272127192721E6185F
:1022A000A510E6182821282128192821482148218D
:1022B00048214821482148214821482148216821B6
:1022C0004821271926192719272148216921692121
:1022D00069216921271928214821682148212721BE
:1022E0002821482147194719E510C508A508E61017
:1022F0002719C510E61006190719272127210619E5
:1023000006190619AF4B1EF7F6E4CA794751095270
:1023100030A4F6DD93CDB4D532D511E551E551E5C4
:10232000D0DC91ECEFD4EFCCCFCC8EC48EC46EC495
:102330004DBC2DBCCBB3ECBBABB32A9B4B93AD9345
:102340004549665186312108C3184108863197B541
:102350008A5235ADB6BDD29C95B5B19C17C6B5B500
:1023600099D6A63125216B4A8B523AC60D5B83085C
:1023700026192621261926190619E518C410C51094
:10238000E518E5182721A510C51006192619E61825
:102390000619A510E6180619272127212721E61876
:1023A000A510E6182819281928192821482148219C
:1023B00048214821482148214821482148216821B5
:1023C00048212719271927214721482169216921F7
:1023D00069216921682148192719271948214821AD
:1023E0004821271967212619C510C510C508E50819
:1023F0002619061906190611261127192721072162
:10240000061906194400ED42FFFF37E5ABA1E8705D
:1024100025314B5353ADB5ED54F532E530DDEFDCEE
:10242000F2E4F3E4EEDCEECCCDC48DC44DCC2DC48F
:102430002CAC0BA4EBAB4AAB4AAB6A93EC83A5394B
:1024400022386DB2A739200082104100F49CB39469
:1024500000006210F08338CE17C6709403212C63FD
:1024600096B5A310C410C41063080A424A42A410CF
:10247000A4100619261926210619E510C410E51026
:10248000E518E518E618E618C5102B426829C510AE
:102490000619C510E510061927212721272106193D
:1024A000A510E618271927192719281928214821C6
:1024B00048214821482148214821482148216821B4
:1024C00048212719271927214721482169216921F6
:1024D0006921692189214821271927194821482183
:1024E000482128214621E5188410E518E510E50863
:1024F0000611472106190611261127192721272120
:1025000027212719AB4105016D439FFF3BFD6FBAA2
:10251000A85965296549ECA292DCB4DDD3D551CD2B
:1025200012D5F3CCEED4CDCCADCC6DCC4DCC4DC4CE
:102530004CB44CA40B9CCB9BCC9B2A7B843941286C
:10254000687131CBC31841088108AA523CE766295B
:10255000831042082D6B58CEF6C5EA5A23219AD62D
:102560000D638310051905214629A8316308E5107C
:10257000E5104721261926210619C510C510E518B2
:10258000E518E518C5102721A408EE5A4B42C510DE
:102590000619E618C5100619272127212721061933
:1025A000A510E618271927192719281928194821CD
:1025B0004821482169216921682148214821682151
:1025C00047212719261927194721482169216921FF
:1025D0006921692189216921682148214721282110
:1025E000482148212629C5206318C520E510E5109B
:1025F000C510271927192711261127192721272147
:1026000027212719AA41C931C5084C4ADFFEDFFE40
:10261000F4D3C9894679C4586659EA726E8C72B58A
:1026200073CD33D530CDEFD4AFD48FCC6FC44EBC87
:102630000DB4ECABEC93AA734542A0282248E6689F
:10264000F3BB4C7241082000A2109ACE149D4208A0
:102650000521220897B518C6F6C574AD17C635A56D
:102660008310E5180519A41067294E634721061940
:1026700026190619261927210619C510C510E518AF
:10268000E518E51806190619A510EA398C4AE61866
:102690000619C510C510E618272126192721061985
:1026A000A510E618271927192719281928192821EC
:1026B0004821482169216821682168214821482151
:1026C00047212719261927194721482169216921FE
:1026D000692169216921692169216821482128210D
:1026E000282128210631C53064288420C518E51822
:1026F000C51006192721271947112711272127213E
:10270000272127196D4ACB498A41E700AA09DBC571
:10271000DFFE59FDEEB2E969875106490441C5491A
:1027200089726DA30EAC0FB4EFBBEFABCE9B6C9375
:10273000AA92499284590121A010E348C57014DC83
:10274000D5BCA300821020002C639EEFE8318308E3
:10275000A410E9393AC6E83917C6B9D62842620842
:10276000E5180619E518672906190619EE5A6721B2
:10277000A510061927192721E510A510E510E51861
:10278000E518E618272106190619C51068294721FA
:10279000C510E618C510E6180619061927210619EE
:1027A000A510E5100719271927192719271928191E
:1027B0004821482148216821682168214821482171
:1027C00027190719261947214721682169216921FD
:1027D00069216921692169216821682168214821CD
:1027E00028210819E5400649C6406428A420E518B8
:1027F000E6180621272147194711471127192721D4
:10280000272127194D32EC418A392B2A8801A6004D
:1028100031833FFFBFFF3ADEB1B38A99C688C568EE
:1028200083506348E5480549264946412641053914
:10283000834042482248A35846694A8AD8F557CD72
:10284000C410E40062082100BAD6F3940000051910
:10285000A5106729C418CF7B308474AD0F84210084
:10286000E618C61884106F6B2B4206192F63472198
:10287000C510472147212719C510A510E618E518EE
:10288000C5100619061927210619C510A4086721C5
:10289000A5100619C510E6180619E6180619061936
:1028A000A510C5100619071927192719071927197F
:1028B00028214821482168216821482148214821B0
:1028C00027190719261947214821682169216921FB
:1028D00069216921692168214821682169216921CB
:1028E000482128218440275948616438A528C51803
:1028F000E6200721272147196711471127192721AA
:1029000027214719ED210C2A2B3AC929EB29AA21A5
:102910000601E80914753EF7FFFE5BFD93FB4DD2FF
:10292000CA918A71285928494739273906392741D8
:102930006749875989912DD214FC3BFE718C230184
:10294000C300C51841002521D6B5083AE839C4109E
:10295000C518A510E518294A81108531F6BD4E6BC2
:10296000E618C618C9392B42CD522B42EA39A510B8
:102970000619061947212719C510A5100619E618CA
:10298000C510061906192619E6180619E61826199B
:10299000E618A510C510E618E618E5100619061980
:1029A000A510C510061907190719071907190719DE
:1029B00028194821482148216821482148214821D7
:1029C0002719071926192719472148214921492183
:1029D00069216921692169216821682169216921A9
:1029E0006921692123380761AA71A540C528A51866
:1029F000E5180721272147196711471127192721B2
:102A0000472147190B32EB31CA29CB310B3AEA3156
:102A100089292819C608CA29D26B3BBEDFF7FFFFF8
:102A20003FEF7BD634E492D330C310C330BB92C3A4
:102A300095D4B9E59CEE3EF7B8B54A3A4200A408F1
:102A40002619C408620883086308093AF49C093A05
:102A50008729C410C410A410C410E518E518CC527E
:102A600067294E63CB52E4184A42CC5263080619D8
:102A70000619061947210619A408E510E5180619D4
:102A8000C51006192719061906190721C618C518F1
:102A90002619C408A4080619C518A518C5180619CA
:102AA000C4080509C5180519251126090619C620E7
:102AB000C728E828292128212921482168196719D0
:102AC000261906212719281948214821482168215B
:102AD000482168216821482149216921692169210A
:102AE000882168218501856067C886A0C328850183
:102AF000E510C630072948194819072945216511ED
:102B0000671128214D3A0B32AA29AA29AA31CB31C3
:102B1000CB31CA31A9292711C50807110A3AB07368
:102B200036AD5ACEBDFE3FFF5FFF3FFF3FFF1EFFAA
:102B30005BEE98C58F7BC8396200620005110519EC
:102B4000C410A410620842006208E8392E634A42A9
:102B5000F17BE9396729C410A83105192621A8316C
:102B60000D5B6F6B6E6BC8398F736729A510C5102D
:102B7000E618682947210619A408E5100519E51883
:102B8000C51006190611271906190621C5180619B8
:102B90008829C50884008408E5200621C418E510AA
:102BA000C508A400E518E510E508E508E510E620ED
:102BB000E7200821282128212821482168194719C0
:102BC000261906210719271948214821482148219B
:102BD0004821482168214821492169216921692129
:102BE000882168216401855888C8A7B0A4402511B0
:102BF0000619A5200721481148190729252165191B
:102C0000671928214D3A2C32EB31AA2989298929C3
:102C1000AA29CA31EA31CA29A92968210719C51880
:102C2000C518E520C729293A4A422942E941A8396D
:102C3000262183084200A308051125192519E51846
:102C4000A41884186208C41022008B4A6F6B8F6B23
:102C5000C83187292E634E63ED5ACC52738C4E6374
:102C6000AC524621117CCC52E518C510C510E618AF
:102C7000272106192721E5108408E5100519E5101C
:102C8000A41006192719272126210519C410C510DB
:102C90006821AA29E71044008410C518A410A410C4
:102CA000A508C508A518C510E5100511E618E61811
:102CB0000619071907190719081948194819271972
:102CC00006190619071927194721482147214821C4
:102CD0004821482168214821492169216921692128
:102CE0006821471965018548A8C0C9C88668A52814
:102CF0000621C518261167114819072926294519E3
:102D0000471948212D3A2C32EC31CB31AA296929B7
:102D100069214821AA29AA29CA29C929882947211C
:102D2000272127212501250125092609E508C408B1
:102D3000E5104619251166192511C408A310C418F9
:102D4000A41822108308830822004E638B4AB073B4
:102D5000A8316729AC52B073C41087292E63F59C43
:102D600006218410117C4A4283080619E6180619C8
:102D7000271927212619C510A40805190619C510F9
:102D8000A4100619072107192619E5102619061996
:102D9000C608AA29EB312821A4106208C418E51836
:102DA000A408A510A518C510C510C510A410C50805
:102DB00006092611E618E7180719481947192719AF
:102DC00006190619071927194721472147214721C5
:102DD0004821482148214821492149216821692168
:102DE0006821271965018538A8A82BD12A9945386B
:102DF000C520051126094711481927292621262112
:102E0000472128218E422D32CB29AB29CB31CB3122
:102E1000AA316929482148216821A929A929A9316C
:102E20008931882988198819671947194721472145
:102E30002721261926190511E51005190519C418A9
:102E400083186318A410A410C41083080519B07364
:102E5000093A051967296F6B4721A831ED5A538C40
:102E60004F638729672963080619C510C51006191D
:102E7000071988290619A408A40806190619A41018
:102E8000C5100619072127212619E5100611271953
:102E9000E71028198A290B3AA931E5188308830815
:102EA000430843086410A410A510A518C510E50830
:102EB00025010501E610C618071947114719072112
:102EC000E620061907192719271947214721472105
:102ED000482148214821482148216821682188212A
:102EE000682106112501C530C8804AB1ACA16648E9
:102EF000A520051126112711481947194621262119
:102F0000272108296E3A2D3A0C32CB31AB31AB3147
:102F1000AA31AA31AA2989298921482147212721B3
:102F200027212821482948290829E720E7280729B7
:102F3000E620C518C518E5180519C410A410A3107B
:102F4000831063108408C518A410A4100619C410B7
:102F50000619051905192A422E634F6B6B4A6F6BD0
:102F60004B4A4721C4100519E51006190619061920
:102F700007192721E6108408C51006190519A408A9
:102F8000C510061927210619C50806110611E610F5
:102F90004821C5104829CA39C939CA39E6188408F0
:102FA000630842084408430843086410A410E40876
:102FB0000401C400C510C5180611471127190721BF
:102FC000E620E61807190719271927214721472165
:102FD000472148214821482148214821482188216A
:102FE0006821061106112731E650C76849798640E5
:102FF000C520261906190719471987116711472196
:10300000272908314D3A4D3A2D3AEC31AB318A2916
:103010008A298A2969298929892989298929692166
:103020004821482107210721082907290729E728DE
:10303000E6200621E518E5180519E518C410A310C7
:103040008310A3106308C510E518A41006192621E3
:1030500006210519C4108410872947210619E5188F
:10306000C510E518E518E510E510C5102719E61894
:1030700027198829C5108408E5100519E51084086A
:10308000E5100619E518C510A50807114819061915
:10309000C418A3184E73CD6248290B3A0B3AA931D4
:1030A0004729E418E620A61864104308420083006C
:1030B000A300A408A510A510E5100611061906190D
:1030C000E618E6180619071926192719271947219E
:1030D00047214821282128214821482148218829A1
:1030E0004721E610271947212629C5300739A52889
:1030F000E518262106210721471987118711672125
:10310000282908398E424D420C32EC31EC31EC3139
:10311000AA3169298A2989296929682168216921AF
:10312000692148214819482147210719E61806193D
:10313000E618C510E518E510E510E410C410A41059
:10314000A4108310C510A410E518E518E518262171
:1031500047210619C510E518C518E51826210621CE
:10316000E61827210619E518A510E618E610271914
:1031700047212619A5088408E5100519C5108408FB
:10318000E5100619A408C9290B32A7008608A51066
:103190006218685A13B5F4ACEA498A31CB39EB3975
:1031A000E939E839AA39CA39CA3988290519830899
:1031B000431043108418A410C508E6100619E61839
:1031C000E618E618061906190619261926192721E0
:1031D00047214721282128214821482148218829A1
:1031E0004721E51027192711671967216721E51085
:1031F0000511461906210621271967118711672134
:10320000472927316D426D4A0C3AEC39AB31EC312C
:10321000CB31EB39CA318A296929682169216921B1
:1032200048212819671947194719261926192619F7
:10323000061905110619E5100511E510A410E51889
:103240006308C410C518A5100619C5180619C510BD
:1032500026212621A410E518E618061906190619D4
:1032600006190621E518E510C510E618E618271915
:103270006821E6108408C5102619E510A410A410D2
:10328000E618A5106721906B515B28190719C42017
:10329000085AB1B4F2BC54C5D18B65188A310B3AC7
:1032A000EA39A8318A398931C9312A32C8312631FF
:1032B0000320011802088308A400E510C510E618D1
:1032C000C510061906190619061906190619261930
:1032D00027192721271927194821482168218829DA
:1032E000271906192711471167118719A8192509E8
:1032F000C40067194721E6180721472147196721AC
:1033000067216721AD522C424C42EB39EB31CB3176
:10331000CB31AA29AA318A298929682969296921F1
:1033200069214821872147212619061906190619FE
:10333000051905190519E510E510E510C410E5108B
:10334000A408C510C6188510061906190619A41078
:10335000E5184721A410C510E518061906192621FD
:1033600026210621E510E510C510E618E618071914
:103370002721C5106400E510C410262184086308C5
:10338000C518061947214821281989294729E851D4
:1033900033C512CD12D5F2C4B7D5CD6A4408CA39A7
:1033A000CA31EA314939A939E929E92967294C6A39
:1033B0000C7A719B6839420083008408C510061995
:1033C000C510E618E618E618E618061906192619B3
:1033D0002619271927192719482148216821682902
:1033E000061906194609271127196819A819260967
:1033F000C4004719471926190621072927294721FB
:1034000067218619B0738C522B42EB39EB39AB3103
:10341000AB29AB29AA29AA298929892989296921BE
:10342000692169214729272926210621062106210C
:10343000E518E5180519E518E518C510E510C510DB
:10344000C510E510E618841006192721E518841028
:10345000A4104721E518A410C5180619061927213C
:103460002721E618E510E518E510E61806192719D2
:103470002719A4088408A40805190519430084081D
:103480000619E6184821071906210521A74171AC44
:10349000F2C4D1CC12D513D534CDF8D5D183272998
:1034A000A931AA318A41A9318819092A8941EB71C8
:1034B000AF9A5FFF16AD051184006400E618E610B0
:1034C000A408E510C510C510E510E518E5180619A3
:1034D0000619261927192821482148216829482139
:1034E000E618061946110719082128216821061136
:1034F000A408261947194719062107292729472112
:103500008619A62172944E730A420B42EB39CB31D5
:10351000AB29EB31AA29AA2989298929892969296D
:103520006921692126292729272926210621E52025
:10353000062106210519E518E518C510E510A408AF
:10354000E510E510E618A51006194721C518A410C6
:10355000840826210619A410C5100619061927216A
:103560002721E518E518E518E510E51006192721CB
:10357000061984088408A4082621A4102300C5186D
:103580008410E61807212729E42044310F9C33CD0D
:10359000D1CCF2D4F2D454DD95DD74CDF8D5F18BD5
:1035A0008931AA39AA41A929C919E93128494A7199
:1035B00015CC9FFF2F6BE5108721A4086408C51068
:1035C000C510C410C510C510C510C510E510E5180C
:1035D000E6180619071927212821482168212719EB
:1035E000E61006192511E620E82808294829E618DA
:1035F0008410E6186719671926210729272947210A
:10360000A6294842719C108C6A520A420B3AEB314F
:10361000CB29AA29AA29AA29892989298929682996
:1036200068214821672147214619261906190619DC
:10363000261947210619E518E518C510E518A41044
:10364000E510E5100721E61806194721C518C51031
:10365000840805192621C410C41006190621272143
:103660002721C518E518C410C410C5100619272154
:10367000C51063008308E510E518A4104308841002
:10368000C5104C4A07316318E3300E9C53CD32CD40
:1036900033D554DD34DD54E553DD74D5D6DD97C51F
:1036A0000A4AEB418A414B32091A07294A714B8178
:1036B0009BED7CE6A510A400E9298821C5108410A3
:1036C0008410C408A410A510C410C510E510E51896
:1036D000E518E6180619272127214821482106194F
:1036E000E61006190519E620E828082127210621F9
:1036F0008418C6184721471926212621272146214B
:10370000E739EA620F94719C2D73E941EA39CA31B5
:103710000C32AA21CA29A929892968298829682956
:103720006821482168194719471947196719671906
:10373000261906190619E518E518C510E518C5106B
:10374000E510051927210721E6182721E518C518D6
:10375000A410C4104621C410C41006192621262125
:103760000619C518E518C410C410C51006190619A5
:10377000840863008408A410051963082300440822
:10378000506B138442180439EF9B12CD32D5D1CC43
:1037900032D512D533D533DD74E595E575D539E6E7
:1037A000ED720629EB490A222A2269410A816C91AD
:1037B0003FFF57A5671926196719E9298821631062
:1037C0004308C408A410A410A410C410C410E51029
:1037D000E518E618E6180719272148212721E618D9
:1037E000061906190421E618082128212821062196
:1037F000C510C51027192621262126212721872912
:10380000484A2A732E9C70A430948B52C931CA291D
:103810000C32CB29AA29A92989296829682968296C
:1038200068216821482148214821682168214719D9
:103830000619C5100619C518E518E518C5100519AB
:10384000E410051948292721C6182721E618A410D5
:10385000E518A4102621E518C41006192621E6183B
:10386000C510A510C410A310A410C5100619E518A2
:10387000430863088410A410E51822004308A51823
:10388000749470732020AE9313CDD1CC6FC412D535
:1038900032D533D553DD33D554DD54DDB6E5F8E507
:1038A000519CE42869394A228B2A2951AA90B2CA2C
:1038B0009FFFB053E50027194711871126194310C0
:1038C0006418A300840884088408A410A410C410F9
:1038D000C510E510E618E718272168290719E61032
:1038E0002719061904190611281928194821272112
:1038F000E510E60827192721262906294721E93955
:10390000A95AE96A4EA46F9CD2A4D07BEA39EA3165
:10391000AA21CB29AA21A9298929882968296821CE
:103920006829682969296929692928210719E61858
:10393000E61807210621C518E620E518C510261946
:10394000C410251968294721C5102621061984109D
:10395000E518A4102621E518C41006192621C51063
:1039600064086408620842088308C410E518A410BB
:10397000220063086308051942004308C518472957
:103980008D5289316C8BF2C470BC50C490C4D1CCC0
:10399000F1CC12CD12CD12D574E575E5B6E5F7E59B
:1039A00055C585410729E8114A1A6A618A9817F4B2
:1039B000BFFF2912E50047196819A7110611021067
:1039C0004310620063086308630883088308A41037
:1039D000C510C510C510E618272168290619C5109D
:1039E0004721061924192611481149194821472150
:1039F00006090601471127292731062947294A4286
:103A0000EA62A862108C919CD1A4919C2E730B4207
:103A10000A3AA92988218821882969294A292A2935
:103A20006829A72987296721261906190619072158
:103A3000062106210521E420E418A4180621E72028
:103A40008610292988292721E6180619E518C410A7
:103A5000C410A4100519E518C51026190619261951
:103A60006821E610A608C508C5088200A20841081A
:103A70006208420864086500C5084B3A8729C428D3
:103A800065512C9370C46FC44FBC6FBC6FBC90C4A5
:103A9000B0C4D1CC12D512D574DD95DD75DD95DDC0
:103AA000F7E50762C63888196709685129913DFE14
:103AB0001BD646016601472129214A21C610000074
:103AC0002000A20021006208A308A310C410E61879
:103AD0000619E610A5100719272107190619061956
:103AE00026192619E620062126214621672167216D
:103AF0002619E6102719271948294629A641A9623F
:103B0000A86287620F84308C13AD13B530942D6B8F
:103B10004C4A2C3AEA31A92989296929692989312C
:103B200088292719472127192719272147212721C4
:103B300026210619E5180519061906210619C610C9
:103B4000C610692988292719A5102621C518C4106F
:103B5000C418A4100521C410E51826190619271940
:103B600088296821692148214619E410210041086B
:103B700021004308840884080A322A3AE51886415D
:103B80002D8B50BC6FC44FBC4FBC6FBC8FBC8FC45F
:103B9000B0C4F1CC12D512D533D554DD54DD95DD4A
:103BA00017E60B8BA528C9214711A95969913DFE3C
:103BB000B69CE5008711482949294919C508210003
:103BC00020004100C310E410041905190519061955
:103BD000E618A510C5100719272106190619061998
:103BE00026190619E6180621272147216721672192
:103BF0004719E610E610682126294629695AC96244
:103C0000A86AC86AEE837194D2ACB0AC8FA4CE8B94
:103C10006C526D4A2C3AEB31AB29AA31A82987297D
:103C200068216B294A214921482147214721462102
:103C3000462126212719E718E71827190719C61062
:103C40002719A829A929061984084721C410C410D6
:103C5000C418A4102621C418E5180519C510C510EC
:103C6000E61006190719271967218729830801001B
:103C7000010022002300A510CD52262187398E8B0A
:103C800030AC50BC6FC44FBC4FBC90C490C48FBC10
:103C9000B0C4F1CCF1CC12D533D554DD74DD95DD53
:103CA000D6E530ACE52068212829AA696DA21FFF5E
:103CB000716BA50047112829492949192711251990
:103CC00004190519462125190519E518E510C51827
:103CD000C510C510C6180721472126210619061947
:103CE00006190619061907212719272167216721B7
:103CF00047190619E51047292629084A0B6BC9629E
:103D00008762C86A8C73909C90A44EA44EAC2E9C83
:103D10008D838D5A2E424F42EC31E931293AC93117
:103D20004921AB296B296A21692168216721672113
:103D30004621472107190719071948210719E610D5
:103D40008721A829A829A408C5104621C410C41099
:103D5000A410A3100521C4180519E518A410C51056
:103D6000C5100619C61006194721A82946210100C9
:103D7000220042082200A418C839A7394D8310A494
:103D8000CEA32FB44FBC4FBC90C4D1CCF1CCD0C487
:103D9000D1CCF1CCF1CC12D512D533D554D574D5C4
:103DA00074D513CDC729062108494969F7DC9FFF5F
:103DB0004C42070948190729492929196711A721E0
:103DC000662127292619E510C410C410C410C51097
:103DD000C510E518E618262127210621062106210F
:103DE00005210521071927192719271948216821B5
:103DF0004721E6182621052186310B6BCA6AA96284
:103E0000C86AC86AAD738F9CCFAC4EACADA32EAC64
:103E10008FAC4D732D4A504A6E422A3A2A32EA310B
:103E20008A2989216921692969298929882968219B
:103E300047212719E610472168216821E610E6107E
:103E4000A929C9296721630026190519C410C410BE
:103E50008310A310E518E4180521C418A410E51870
:103E6000C510E618E610071927216829A931A4080A
:103E7000020001002100252966390C7BAE934C938A
:103E80004FB44FBCEDAB2FB490C4F1CC12D532D5AA
:103E900012D5F1CCF1CCF1CCD1CCD1CCD2CCF2CC6E
:103EA000F2CC54D5AA3AE628A750EC819FFF1BC656
:103EB0002811491969290721282128194711861134
:103EC0000619E728C410A408C410C510E510C510D1
:103ED000C510C51806212621262106210621052107
:103EE0000521052127192719281928194821682192
:103EF000472106210521042148522B73A962C96A72
:103F00002A732A7309632D8CAFAC0DA4CCAB2DACF6
:103F1000ED9B2F9C0D6B2C420C3A4C42EB31CA317D
:103F20000B32C929A82988298829682948214821CC
:103F3000272127194721672167212619E6104821E3
:103F4000CA31CA31061964086721C518C410A41003
:103F50006308A41005210521E51884108410C510FC
:103F6000C510C510C6100619482127218929EA3134
:103F70004300010001004531085A2C8B0B8BADA387
:103F80004FBC2EB4ADA3EEAB2EB46FBC90C4F1CC3D
:103F900012D512D5D1CCB0CC90C490C490C470BC12
:103FA0004FB490BC6C5B8430254835BCDFFF0F53A9
:103FB000E8102921492927190719281947196711D4
:103FC0000619E720C510A410C510C510E510C510CE
:103FD000E510E518262126212621062106210621A5
:103FE000062106212719271908190819282148210F
:103FF00047292629C31886392B6BC9620A730A73AD
:104000002A73E972664A8C7B4FA42DAC6DBC4EB40A
:10401000AD9B2F9C4F94EA62EA41CC39CB390B3AE5
:104020000A32A929C731A731672947212821282128
:1040300048214729882946212621E5182721AA3128
:10404000AB316A29A408E5106721C510A4108310BC
:104050008310C41805210521A4108310A410C518CD
:104060000619E618271927192821081949212C3A79
:1040700088210511A3104539896AEB8A4B9BEEB361
:104080008CA3EDAB8CA3ADA3CDABEDAB0EAC4FB41D
:10409000B0C4F1CC90C470C470C490C490C44FBC80
:1040A0000EACADA3CE7B05410440BADD98AD07113F
:1040B0002921E82048214719061107192719061157
:1040C000E610A618C510C510C510A410A410C51080
:1040D000E518061926212621262106210619062182
:1040E00006210621271128192819281928214829CD
:1040F000472946296531895A2A73C86A2A73097380
:10410000C96AC96ACD7BED8B4EA48DB40AAC2CACC8
:1041100090B4CD930D946E9C4C73C9418939A931EB
:104120008821AA29672967296729682968296829B0
:104130008929882927210619272147298931CA3940
:1041400069312829430047214721C518A410630875
:104150008310E418052105218310A410C410A410B5
:10416000C518C518E610071928216A29692169218F
:104170000B322619C318E751EA82EA924BA38CA3AB
:10418000CDAB6B9B6C9B8CA3EEAB0EACEEABEDABF7
:104190002EB490BC70C44FBC4FBC4FBC70C46FBC3D
:1041A0002FB48C9BAD832A72233899CD7063C608D7
:1041B000E818E828071967110511061906210619DC
:1041C0000719C6108410A510C510C510C510E5103C
:1041D0000519261926192619061906190619061988
:1041E000072107212719471928212719272147299E
:1041F00047314531895A4B73C86A0873E86AE96ADE
:10420000C96A2A73B0836C7B6CA46CAC2CAC8EB482
:104210000CA4AB930D9C0D9C2D9C0E9C4A5A6931AD
:10422000AB31AA298929AA318929A931C931472164
:10423000482148214921482169298A31CA39CA3986
:1042400048296410C51088290621C418830862080B
:104250008310E4202521A4108310A410C410C518D5
:10426000E618E51827112819492129214921892112
:104270002719C4108631285AA97AEA922BA34BA396
:104280008CA38C9B8CA3ADA3CDABEEABEDABCDAB38
:10429000CDABEDAB2EB4EDB3CDAB0EB44FBC2EB465
:1042A000EDA38C9B4C8BCB82E540B8BD0E53E6084A
:1042B000E71808212719461145110519E520E618C8
:1042C000E610C610A410A410A410C510E518051916
:1042D0000619061906192719271926190619271963
:1042E000272127216721271927214729272906293F
:1042F0008739495A0A730973E86AC76A2973E972E8
:104300000A732B7B4E7B4B7B6DA4CDB46DAC6DAC37
:104310006CACAEB44DAC0CA4CA9B2BA46C8B88398E
:104320008A31AA318B29CC31AB29892168214819DE
:104330006921892149216A21AB29CB31CA31A931AF
:104340002621A310672967290619A410831083105A
:10435000831005210521A4108310A410C410E518B2
:104360000619E618281128196A214A216A216921AB
:104370000619C418C6414862887AC9920A9B4B9BA9
:104380008CA3ADA3CEABEEABEEABEEABEDABCDA362
:10439000ADA3ADABCDABACAB8CA38CA3ADABCDAB78
:1043A000AC9B4B93CA82CA82A751CC626821E710AA
:1043B000071907190719261125110419E518E51819
:1043C000C510A510A410A410A418C518E518061946
:1043D000061906194721E610C51026194721271985
:1043E0000719271946212621262126290529463184
:1043F000495A2C7BC86AE872087308730973E9721A
:1044000009732B7B6C832F9CD1B48EAC6CACADB498
:10441000ADB48DB48DB4A99B0BACCBA30CA42B7BFA
:10442000883949298C298B298B296A2169196A21A4
:104430008A21AB298A21AB21CB290B32AA29261943
:10444000E5102619A8312621052183086308A31049
:10445000A4102521E518A4108410A410C510061975
:1044600006190619281149198A216A216921271973
:10447000C5180521C649476AA8820A936BA38CA375
:10448000CDABEEAB2FBC0FB40EB40EB4EEABCDABD8
:10449000CDABCDABADABADAB8CA34B9B6B9B6B9B5B
:1044A0004B93098B897A6872285A8741CA39E6107A
:1044B0000611271906190619051904110411E5102A
:1044C000C510A410A410A418C518E51805190619DC
:1044D00026192619061926192619261926192721FB
:1044E000472147210521E42004216631084A8A62D8
:1044F000CA6AC9720973E872C772E872C76AC86A81
:104500000A7B4B83EB930E9CEF9B4EA4ADB4CDB4D2
:10451000ADB48CB44BACE9ABAAAB0CACCBA30C9C4C
:104520000C73AA41CB3149216A298A29AB298B21F5
:104530006A21AB29CB290B2AEA29C921671906115F
:104540002619C929882906210521831063088310AB
:10455000E5182621C418A410A410A510E618061901
:104560002719071929196A218A2969214821C5189B
:10457000A4186539075AA97A0A93ACA30DB40EB4EE
:104580002FB42FB42EBC0EB4EEB3EDABCDABACA3B9
:10459000ADA3CDABADABCDABACAB6B9B6B9B4B9342
:1045A0000A8BC8826872E661E6598B62B17BC510DE
:1045B00026112611E610E618E51804110411C4109E
:1045C000A4108310A410C418E518E51805190619DD
:1045D00026192621061906190519E5180519262197
:1045E000262105190329C741AA5ACA6AA962A96ADC
:1045F000E972097B097BE872E872297BE872297B02
:104600002A7B2A7B6CA44DA4EDA34FACCFBCCEBCBF
:104610008BAC4AA40AA40BACCBAB2CB4ABA3EC9BE5
:104620002F9CAE83AB5AC8398831693169298A29F0
:104630008A29EB31A9290A32C929261126196721AD
:104640008929A92947292621E51883108310831079
:1046500046290521A410A410A410C5180619272165
:104660002719071949198A21AA2948210619A418C6
:10467000E428E751A9724B8BACA32EB46FBC6FBC7E
:1046800070C470C44FBC2FBC0EB4EDABACA38CA3F4
:104690008CA3ADA3ACABACABACAB8CA36B9B2A93A4
:1046A000E982A87A275AE6598551CC7AF28BA50877
:1046B0004611E508C610C618E5180411E408C40838
:1046C000A410A318C418E418E518E518E51806198D
:1046D000262126210619E51805212521E420C318E5
:1046E000242986398962CA6A0A73E972E972097BE8
:1046F000297B087B2983097B097B6A83297B6A8361
:104700004A834A7B6983EB9B0BA40DAC6FBCCEBC88
:10471000ACB48BAC0CA42DAC4DB4CAA30CAC0DA4A2
:104720000D9CAEACF1B4EE93EA72E7492631473105
:1047300088318831A83167212619261988218829CE
:104740006929692967292621A4108310A410E51876
:104750004629E418A410C410C510E61827214821E2
:10476000271928196A218A2989292719C418C320D9
:10477000654168720A8BACA34EB490BCB0C4B0C49F
:1047800090C470C44FC42FBC0EB4EDABACA36C9BF3
:104790006C9B8CA3ADABADABADAB8CA36B9B0A8B11
:1047A000C882887A2752C65985592A6ACE62A408D7
:1047B0002519E510C710C718E518E418C410A40897
:1047C000A310C318E418E518E518E518E518062144
:1047D000262126210521E520E420E420042965394D
:1047E0004852EA6AE9720A730973E872E772087B51
:1047F000288329836A8B6A8B4A834A83097B297BB6
:104800004A7B6A830D9C0BA46BB4CDC4EECC8DBCEB
:104810008EBC10C56EACAFBC4CAC0AA44CB4EBA3C0
:104820000BA42BA42BA40BA40CA40C9C8B8B4B7B58
:10483000CA62E841C839262106218931CA3169296D
:104840004829692987290621A410C418E518462992
:104850002521A410A410C518E518061948214821DF
:10486000481969216A216A216821E518C318243989
:1048700007620A8B6B9B4EBCD0C4F1C4F1C4B0C4B8
:1048800090C42FC42FBC0EB4CDABACAB8CA34B9B50
:104890002A930A938CA3ACABACAB8CA36B9B2A93EF
:1048A000C9828772274A8551866187514B52C5104C
:1048B000E510E618E710C710C510C410C410A41006
:1048C000C410E318E418051905190519051926215E
:1048D00026210521E520E420C3200431E649A96210
:1048E0000A73E972C872E87A087B48834883488370
:1048F0004883498B29834A836B8B4A834A83297B6C
:10490000297B297BEC9BCB9B2AAC69BCAAC4ADC498
:10491000B1C4F3C411C56DAC8DB44DACCA9B0AAC27
:10492000A9932CA46BBC0AACC9A32BAC4CAC6DA452
:10493000AFA40F8CC841A839AA39CB398A31893143
:10494000A93188316729E518C418E5182521673190
:10495000C418A410C418E518E518271968294821B7
:10496000481989216A2149214719C410C318854172
:10497000897A6C9B2EBCF1D431D5F1C4B0C470BC23
:1049800070C40FC44FC40EBCCDB3ADAB8CA34B9B56
:104990000A93C98AEA924B9B6BA34B9B4B932A9336
:1049A000E9826772484A6449455905494B52E51006
:1049B000E418C518E710C708A508A310A410C5106F
:1049C000C410E3180519051905190519061926213A
:1049D0000621E520C4182531084AAA62EA72C86A8D
:1049E000A86AC872E97AE87A2883488B688B47837B
:1049F0004883698B498B4A832A83097B6B834A836B
:104A00008A838A8B4AB4C8A30AAC2BAC4BB4EEC4DD
:104A100030C510C551C58EAC8EAC8EAC0CA40CA4A8
:104A2000CBA30CAC2CAC0CA4EBA36DB40AA4EAA3EE
:104A30006CB46DB4CC9BA6514841AB49AC39AC3198
:104A40008A29AA29E518E510061967218829271956
:104A5000C510C4100519C418262127294929292160
:104A60002B294B29CB192811E52082280241266ADF
:104A70004B932FB4D2CCF2D433DDB1CC90C4D1CC93
:104A800070C470C42FBCEEB38CAB2B9B2B9BC98A1C
:104A9000A98A8882E98A0A934B9B4B9B2A93E98ACD
:104AA000A8828782C559444965412531EC5AA41032
:104AB000C510E618C518C510C410E510E510C510DE
:104AC000A618A62006210621E620E520E428E320FA
:104AD000E2282231665AC86A0873E872C772C8723F
:104AE000E87AE87AE982E982098349836A8B6A8BEA
:104AF0004983088329832A834A8B2A832A834A830A
:104B0000AB8BCB938CBC2AACC9A32BAC6BB42FCD95
:104B100030CDEFBC51C510BD6EAC4DAC4DACEBA370
:104B20000BACCAA3EB9BCA9B6DB48EBC2CAC2BB454
:104B30000AAC2BAC4DACAD936A6288416939CA3975
:104B400027218408C5180621682968292721C5104E
:104B5000E51866290521E418252106194829492167
:104B60004A216B29AA116819C52061206451C87AAD
:104B7000CC9B90BC13D513DDF2D4F2D4B1CC4FBC96
:104B80002FBC0FBCCEAB8CA34B9BC98AA982888259
:104B9000A982A882887AA882E98A2A932A9309930B
:104BA000A882467AE66123410331A7394A4AA41014
:104BB000C510C518A510A410C408E410E510C51848
:104BC000C620E628E520E520C420C4200429853934
:104BD000685A4A7BE872E872C772C772E87A087B43
:104BE000E87AC872298329832983298349834983E1
:104BF0004983498B498B09834A8B4A8B097B6A8B92
:104C00000D9CEB93CDC48CBCE9AB2AAC4BB4CDBCB2
:104C100030CDEFBC30C551C5AFB44DA48EB42CAC73
:104C20004CB40BACEA9BEBA38EB46EB42CAC2CB49E
:104C30002BB44BAC0AA40BA4CC936C83E749E328B8
:104C400061106110841806298831A9394829062184
:104C500006214629C418E4184621E5186829692167
:104C60006A214A21AA1927198318A230E6616B9399
:104C70006FB433D513D513DDF2D491C4D1CCB1C404
:104C8000CEAB8DA3EA8AA97A887A276A066AE6619A
:104C9000476A276A887AA87AA87A887AC9820A93A2
:104CA000C98A477AC6590339C228E8414629830888
:104CB000C518C5188410A310E41004190419C418E9
:104CC000A420A420052905294531E741685AC96A6D
:104CD000E9724A7B297B087BC872C772C772C87A9F
:104CE000E87AE87A298B498B498B498B4983498338
:104CF0004983498B498B498B29834A8B4A8BAB93D8
:104D00002D9CCB8B2AB46BB48CBC0AAC4BB42BACB3
:104D100050CD91D551CD51C531C56DAC4DAC4DACDB
:104D20002CAC2CACA9930BA46EB4AFC48FBC0CAC50
:104D30006CB409AC6AB409A48893EB9B8A8B297B79
:104D4000C76A455A64396439653966392631062996
:104D50002729893107212621262184086721A821B6
:104D6000A92168198919E610A3202441887A2EB454
:104D700032CD53D554DDF3DC91CCD1CCCDABC9824F
:104D8000CA8AC669476A476AA97AA97A68720662B6
:104D900006628451A45906626872A97AA97AA97A2E
:104DA000A87A887AC659E330A22046316308841075
:104DB000C518A418A318A310A210C218E318E32062
:104DC00004294539A541E749685AE96A0A73E97235
:104DD000C86AE8722983097BE87AC87AC77AC77AF1
:104DE000E87A09830983298B498B6A8B698B49830C
:104DF000298329830883CB9B8A938A93AB93AB93B4
:104E00000C9C4DA40AAC2BB4CDC42BB40AACEAA3C1
:104E10008DBC2FC530C5F0BC10BD8EB42CA46DB4B4
:104E20002CAC4CB4CA9B0BAC6DB4AFBCAFC40BACD8
:104E30002BB409ACE8A329AC6793478B2AA40AA436
:104E40002BA46CAC4B9CA98B0973475A2539A42021
:104E5000E6284831E728E7202721C5106721671990
:104E60008819C9214819E518A32885598C9B32CD8A
:104E700073DD12D5D1CCD2D4D2CCCEAB0A8B0A8B77
:104E80006D9B0FB40FACAD9BCEA38D9B4C8B0B8356
:104E90002B8BC97AC559434943490662A97A88725E
:104EA0008872A97A28628220411062106208C418B0
:104EB000A418631882188218E22023296431A539C6
:104EC000E651285A6762A862A86AE972097B097BE1
:104ED000E87AE87A4A8B0983E87AE87AE882E88215
:104EE0000983298B298B298B498B498B698B698B8A
:104EF000698B698B6993CB9B8A938A93EC9BCB9349
:104F0000EC934DA44BB42BB48CBC6CBCEAABEAABB9
:104F1000EAA34CAC10C50FBDAEB4EFBC6DAC6DB424
:104F20008DB42BAC4CB40BAC4DB44DB44CB42BB4D1
:104F3000C9A309AC09ACC8A3C8A3C9A36CBCC9A3C5
:104F400009AC6BB4AAB44AAC6BACEC9BC972A74970
:104F50000531A5208941E728A618C61848216821EF
:104F60006819CA294719A418A328897AF1CC73DDD6
:104F700032CD12CD33D591CC0B9B2B9B2FB4B1C42A
:104F800013CDD2CC51C430BC50BC30B40FB4AEA39E
:104F90008D9B2B8B4B8B276A23490241A559486A6D
:104FA0008872686A69628220210821088310A31030
:104FB0008318A320E4282331A541264A6752675A63
:104FC000475A4762A66AA772A772E87A4A836A8B31
:104FD0002983E87A09830883E882E882E882E88204
:104FE000298B4A8B498B298B08832883698B8A9369
:104FF000AA9BCA9BCB9B6993AA9BEB9BAB9BCB9336
:105000000C9CEC9B4CB40AAC2BB4ADBC2BB42BB4B5
:105010002BAC6CB40FC530C5EFBCEFC4CEBC8DB4A7
:105020006CACCAA32CB4EBAB2BB44BB46CBC6BBC58
:10503000E9A3C9ABC9A389A30BB4EBABCAAB89A3E2
:10504000C9ABC8AB6AB409A4C9A3A99B6A8B8B8BF3
:10505000AD936D838E834A5A2631A518E7188A29A5
:105060008A298B214621621045410FB494E512D55F
:10507000F1CCF2CC91C4EB92EEB353DD33D554D5E1
:1050800075DD55DDF4E4D3DCD3DC92CC71CC30BCDF
:105090000FBCEEABADA38D9BCA7AA5592349A55190
:1050A00027622762695AA2200008610862088218F4
:1050B00025316541075206522652665A665A665A8B
:1050C0006662676A856AE77A2883087B087B29839A
:1050D000498B4A8BE882E882E882E882E882E882AB
:1050E000298B498B498B498B288B498B698BAA93D8
:1050F000CB9BEBA3AA9B89936DB46DB4AA9BAB9396
:10510000EB9B0C9CADC46CB46CBCCDC44BB4EAAB93
:105110008CBC8DBC6DB4CEBC30C5CEBC0FC5CEBC76
:105120004CAC4CAC4CB44CB4A9A32AB46AB48BBC00
:105130006BBC0AB42BB4CBABABABCCABECB3AAAB74
:10514000279BA8ABA9AB89A3899B68934893CA9B6B
:105150002BA4CA934DA44EA4AD832952C520072188
:1051600049298B2905214118496A13D532DDF1CC33
:1051700053DD90C42B93EFB313DD74DD94DD95DD27
:1051800075DDB6ED55F555F535F5D3E4D3DC51CCE9
:1051900030BCEFB3CEABADA34B936872A559644955
:1051A000A5512762485A0329000081106108E320B5
:1051B000E749E751065A065A265A66628662866AA7
:1051C000866A8772857207832883E8820883498B01
:1051D0004A8B298B2983E882C87AC77A0883498B4E
:1051E000298B0883498B498B69938A93AA93CA9B1D
:1051F000CA9BCA9BAA9BA99B4CAC0BA40CA42CA435
:10520000698B4983CEC4CEC44CB48CBCADC44BB402
:105210006CBCADBCEBA38DB430CDEFBCCEBCEEBC52
:105220008DB46CB40BB4EAAB2AB429B4E8AB09B4BE
:105230004AB46CBC2CB42DB48BA34EBC0CB4AAAB3A
:10524000AAAB489B49A36AA36AA389A3CAA30AA4D9
:105250000AA40AA4EA9B6DAC4EA4CE8BAB62C941F2
:1052600048316931C4204118CFA333DD12DD12D596
:10527000B0C4CA8A0FB4F3D454E574E5F5EDD6EDA5
:10528000B6EDF8F555F555F534EDF3E4D2DC50CC38
:1052900071CC2FBCEEB3CDABADA34B93A97A066214
:1052A0006451A5512752433100004008C218C6413D
:1052B000E649686AC55147622662255A866AA7721E
:1052C0008672C77A8672C77AE88208832983298B17
:1052D0002A8B09832A8BC87AA772C77A0883288BFE
:1052E000488B698B288B498BAA9369938A93AA93DD
:1052F0008A930BA40BA4A99BEAA38DB44CACEBA39B
:10530000698B698BADBCADBCADBC4CB46CBCADC4E1
:105310004CBC8DBC2BAC2BACEEC4ADBCCEBC2FC5F5
:105320004CAC8DB44CBC2BBC4BBC6ABC4ABC6ABCFC
:105330006BBC6CBC0BB44DBCEBAB0CB46DC4CBAB59
:10534000A9ABEAB3ABB3AAABAAAB0BB44CBC2BB4BE
:10535000EAAB0AAC0AA44CACCB9B8B8B8C8BAD8B91
:10536000CA6A24318210243991BCF2D453E590CC1E
:10537000E98A0EB4F2D474E5B5EDD5ED16F617F65C
:10538000B6EDB7F596F534E5D2DCF3DCF3DC91CC81
:105390000FBCCEB3CEABEEABEEAB8CA34C93EA8A94
:1053A000066A8559E651A1200008A0186331A5417D
:1053B000E651065AC5592662466246624662866AC8
:1053C000A77AA77AC77AA772C77AC87A0983298386
:1053D000E97A2983098329830983C77AC77A2883CD
:1053E00028830783288B6993698B498B698B698B29
:1053F000AA9B0BA46893A99B2BACEAA3488B899327
:10540000AB93CB93CEBC0FC50FC52BB42BB4EECC56
:10541000ACC42BAC2BAC0AA4ADBCCEBCCEBC50CD26
:10542000CEC4CEBC6CC44BBC4ABC4ABC8BC48CC47E
:105430006CBC8DC44CBC0AAC4BBC2AB46BBC0AB46B
:10544000C9ABCAABC9B32ABC4BBC4BBC4BBC2BB41D
:105450000BB4CBABABA3CBA38A9B8B93CC9B2EA4DF
:10546000CC8BC4490008654113CDD2D4F2DC6BA3C8
:105470008CA3F2CC54E574E574ED94E5B4E595E5C0
:1054800054E5F4DC34DDF3D471C450BC2FB470BCEB
:10549000EEABADA36CA38CA38CA36B9B6C9B8C9B82
:1054A000A982066A065AC12840104231E541C4412A
:1054B0000552C451C5590562466A46624562877203
:1054C000C87AC77AC87AA7728772A87209830983D3
:1054D000E87AE97A09834A8B2983C77AA672078317
:1054E00028832783488B699308832883498B498BBA
:1054F000CA9B2BA4EAA3478B278BE68227838A9338
:10550000EC9B0CA42FC550CDCEBC6CB42BB44BBCC3
:105510008CC40AAC2BB44BB4CDBC30CDCEBC0FC5C3
:10552000B1DDCEBCACC46BBC2ABC2AB44BBC6BBCDA
:105530002BB48CC48CC4E9AB6ABC08AC28B44AB4A4
:10554000A9A389A3C8AB4ABC6BC44AB42AB44BBC58
:10555000EAAB89A3499B8AA3ABA3CCA3AC9BCC9B0E
:105560000D9C676A0000A649F2CC13DD8CAB6CA3DE
:1055700033D534DD54DD13DD12DDF1D4F1D4D2D4D2
:10558000B2D430C48DA38DA38DA36C9B8DA32FB4F7
:10559000CDAB8CA38CA38CA38CA36C9B4B9B4B9B04
:1055A0000A938882686A8449A028A341E449E549AE
:1055B000E551C459E5590562466A666A666A8772AA
:1055C000C87AC882A772E87A666AC87A2A83E97AB2
:1055D0000983C87AC87AE87AE87AE87AC77AE77AF3
:1055E00007832883488B288BE8822983498B498B42
:1055F0008A93AA9B078BC57A4793A99B0BA40CA4FB
:10560000EC9BAB9350CDEFC4AEBC0EC5ADC40AACA1
:105610004BBCACC44BB48CBCCEC450D50FCDEEC487
:1056200071D5EEC4EDCCCDCC8BC42AB42AB42AB447
:105630000AB44CBC6BBC6ABC49BCC6A307AC8ABCF0
:10564000A8A3C9AB0AB42ABC4ABC4ABC4ABC29B408
:10565000A8A3689B689B8AA3CBABCCABCDA30EA4BD
:105660002FA4C9722010854133CDEEBB6CAB90CC1A
:1056700053DD54DD34DDF2DCF2DCF1DCB1D4B1D445
:1056800071CCCFC3CEAB2C9B0B93CA8A2C9B6CA343
:105690004B9B4B9B6CA38CA38CA38CA34B9B4B9BD6
:1056A0004B9BEA8AA97A476243416339A341E449A3
:1056B000E451E4590562466A4662666AC772A77297
:1056C0008772E882E87AE97AA872C87A098329831E
:1056D0000983E97AC872C872E87A498B498B0883D2
:1056E00008830883288BE78208832983498B6A8B88
:1056F000288B288B88936893E9A3C99BCA9B0CA429
:105700006EAC6EAC51CDCEBCEEBCEEC4EEC4ACC43F
:105710004BB48CBC6CBC6CBCADC4EECC90D550D53D
:10572000EEC450D50FD5EECCCDC46ABC29B42ABC8A
:105730000AB42BBC4CBCACC46AC408B408AC8ABC68
:105740002AB42BB4CAAB4BBC6BBC4AB409ACC8A3DB
:1057500087A388A3A9A389A3CBA3ECABCCA3EDA378
:105760002EA4AC93E2202339D2C42B9B90CC33DD02
:1057700054DD54DD34DD13DD12E532DDF1DCB1D46E
:1057800051D4CFC32DABCC9AAB92298A8A92CA9AB4
:105790002CA36CAB4BA34CA34BA34B9B2B936C9BAD
:1057A0008CA30A8BAA82897A065A2239A341A3497B
:1057B000E451E4590562466225626662E872C77286
:1057C0008672E8822983E87A4A8BE87AC87A4A8323
:1057D000E87A09830983098309832983298B498B03
:1057E000298B0883698BE7820883E88229838B935E
:1057F0008A93A9930BA4A99BC9A3CA9BCA9BEB9BA1
:105800002DA44EACEFBCEFBCCEBC6CB4ADC4EDCCA3
:105810002AB4EAAB4BB44BB48DBCCEC450D591DDA9
:105820000FCD70D511D5EFCCCDC46ABC49B46ABCDC
:105830002ABC0AB42BBC6CC46CC48BC44ABC6BC4F9
:10584000ACC42AB4AAAB4CBC6CBCEAAB88A388A39A
:10585000A9A3C9ABCAABAAA3EBABECABCB9BCB9BCD
:10586000CB932DA4274AA549CEA34FC4F2DC94E5DF
:1058700074DD74DD13DDF2DCD1DCF1DCF1DCD1DCD4
:1058800050D4AFC370C3D1CBD0CB8FC32DB30CAB2F
:105890002CB32BAB6CAB4CA32B9B4B9B2B936C9BDC
:1058A000ADA32B8BEB8AAA7AA97283498341A349C2
:1058B000C451E4590562256225626662A772C77AFF
:1058C000C77AC77A2983E87A6A8B4A83E87A087BA1
:1058D000E87A098329830983E87AC87AE882098B00
:1058E000098BE882498B088308830983498BAB9B2A
:1058F0000CA4EBA3EA9B8893A99BC99B6993698B32
:105900008B93CC9BAEB430C5CEBCCEC4CDC46BBCE7
:105910006BBC4BBC0AB44BB4ADBCCEC4CEC450D5EA
:1059200091DDCEC452D5EFCCCDC46ABC48B48AC494
:105930004ABCCAB3AAAB2DC42CBC6CC40ED58CC453
:105940008CC42BB42CBC0BB4AAA389A389A3A9A390
:10595000CAABEBB3EBAB0CB42CB4EBA30BA46CACA9
:10596000A88BA88BCE834862EEA313DD53E574E5C4
:1059700074DD95E513DDD1D490D4B0D4F1DCF2E43C
:1059800071DCF0CB53EC74EC33E473ECD0D32DBB6F
:10599000ECAACBA2CA9A8992A98A4B9B6C9B6C9366
:1059A000CDA3AC9B2D9BAA82CA7A065A6241A34919
:1059B0008349C45925622562466266628662C7725F
:1059C000C77A8672C87A29832983AB930983877241
:1059D0002983E87A29830883E87AE882298B298B4E
:1059E000098BE98A0883498B498B8B938B93AB9303
:1059F0000CA48993899388936893478B07838A9330
:105A00006A8B2A834BB48CBC0ECD0FC5EFC4AEBCE1
:105A10006DB46CB44BB46CBCCDCC0ED56BBCEECCC1
:105A2000B1DD0ECDEDCC0DCD6BBCEDCC6BC44ABC65
:105A30006BC42ABCEAB34CBC0BB42BBCCDCCCDCCD4
:105A40006BC46BC4E9BBA8AB88A3A8ABC9ABC9A3A3
:105A5000EAAB4BB44BB4ADBC4CB42CB40CAC8AA385
:105A60008A9B8BA36B93A88290C494E574E574E53C
:105A700095ED94ED33DD50C4ADAB50C413DD71CC66
:105A8000CFB330C4D1DB90CB8CAA4AA22992C78174
:105A9000C7796569A569E669E98AACA3CCA3AC9B23
:105AA000AC9BCCA32B9B4B9BCA8A6872845122412E
:105AB0008349E451045A666A24628672456A857293
:105AC0000783A67AA96A4B838C8B8B8B2A8BE882FF
:105AD000C87A0983E882E87AE87A09834A8B6A936C
